{
  "contractName": "BonsaiCertification",
  "abi": [
    {
      "inputs": [
        {
          "internalType": "uint256",
          "name": "initialBonsaiIndex",
          "type": "uint256"
        }
      ],
      "stateMutability": "nonpayable",
      "type": "constructor"
    },
    {
      "inputs": [
        {
          "internalType": "uint256",
          "name": "",
          "type": "uint256"
        }
      ],
      "name": "allCertificatedBonsais",
      "outputs": [
        {
          "internalType": "uint256",
          "name": "",
          "type": "uint256"
        }
      ],
      "stateMutability": "view",
      "type": "function"
    },
    {
      "inputs": [
        {
          "internalType": "uint256",
          "name": "",
          "type": "uint256"
        }
      ],
      "name": "bonsaiIdxToOwnerAddress",
      "outputs": [
        {
          "internalType": "address",
          "name": "",
          "type": "address"
        }
      ],
      "stateMutability": "view",
      "type": "function"
    },
    {
      "inputs": [],
      "name": "bonsaiIndex",
      "outputs": [
        {
          "internalType": "uint256",
          "name": "",
          "type": "uint256"
        }
      ],
      "stateMutability": "view",
      "type": "function"
    },
    {
      "inputs": [],
      "name": "owner",
      "outputs": [
        {
          "internalType": "address",
          "name": "",
          "type": "address"
        }
      ],
      "stateMutability": "view",
      "type": "function"
    },
    {
      "inputs": [
        {
          "internalType": "address",
          "name": "",
          "type": "address"
        },
        {
          "internalType": "uint256",
          "name": "",
          "type": "uint256"
        }
      ],
      "name": "ownerAddressToBonsaiList",
      "outputs": [
        {
          "internalType": "uint256",
          "name": "",
          "type": "uint256"
        }
      ],
      "stateMutability": "view",
      "type": "function"
    },
    {
      "inputs": [],
      "name": "addBonsai",
      "outputs": [],
      "stateMutability": "nonpayable",
      "type": "function"
    },
    {
      "inputs": [
        {
          "internalType": "uint256",
          "name": "adoptIdx",
          "type": "uint256"
        }
      ],
      "name": "adoptBonsai",
      "outputs": [],
      "stateMutability": "nonpayable",
      "type": "function"
    },
    {
      "inputs": [],
      "name": "getOwner",
      "outputs": [
        {
          "internalType": "address",
          "name": "",
          "type": "address"
        }
      ],
      "stateMutability": "view",
      "type": "function"
    },
    {
      "inputs": [],
      "name": "getAllCertificatedBonsaisByOnwer",
      "outputs": [
        {
          "internalType": "uint256[]",
          "name": "",
          "type": "uint256[]"
        }
      ],
      "stateMutability": "view",
      "type": "function"
    },
    {
      "inputs": [],
      "name": "getAllCertificatedBonsais",
      "outputs": [
        {
          "internalType": "uint256[]",
          "name": "",
          "type": "uint256[]"
        }
      ],
      "stateMutability": "view",
      "type": "function"
    }
  ],
  "bytecode": "0x6080604052600060015534801561001557600080fd5b50604051610b86380380610b86833981810160405281019061003791906100bf565b336000806101000a81548173ffffffffffffffffffffffffffffffffffffffff021916908373ffffffffffffffffffffffffffffffffffffffff16021790555080600181905550506100ec565b600080fd5b6000819050919050565b61009c81610089565b81146100a757600080fd5b50565b6000815190506100b981610093565b92915050565b6000602082840312156100d5576100d4610084565b5b60006100e3848285016100aa565b91505092915050565b610a8b806100fb6000396000f3fe608060405234801561001057600080fd5b506004361061009e5760003560e01c80638f77cff4116100665780638f77cff414610137578063b51af19514610167578063c835489314610197578063e6b1fca3146101c7578063fac63c0f146101e55761009e565b806301e2e0af146100a3578063476a9e2c146100c15780636c230c6f146100dd578063893d20e8146100fb5780638da5cb5b14610119575b600080fd5b6100ab6101ef565b6040516100b89190610642565b60405180910390f35b6100db60048036038101906100d6919061068e565b6101f5565b005b6100e56103bf565b6040516100f29190610779565b60405180910390f35b610103610417565b60405161011091906107dc565b60405180910390f35b610121610440565b60405161012e91906107dc565b60405180910390f35b610151600480360381019061014c919061068e565b610464565b60405161015e9190610642565b60405180910390f35b610181600480360381019061017c9190610823565b610488565b60405161018e9190610642565b60405180910390f35b6101b160048036038101906101ac919061068e565b6104b9565b6040516101be91906107dc565b60405180910390f35b6101cf6104ec565b6040516101dc9190610779565b60405180910390f35b6101ed610581565b005b60015481565b6001548110610239576040517f08c379a0000000000000000000000000000000000000000000000000000000008152600401610230906108c0565b60405180910390fd5b600073ffffffffffffffffffffffffffffffffffffffff166003600083815260200190815260200160002060009054906101000a900473ffffffffffffffffffffffffffffffffffffffff1673ffffffffffffffffffffffffffffffffffffffff16146102db576040517f08c379a00000000000000000000000000000000000000000000000000000000081526004016102d29061092c565b60405180910390fd5b336003600083815260200190815260200160002060006101000a81548173ffffffffffffffffffffffffffffffffffffffff021916908373ffffffffffffffffffffffffffffffffffffffff160217905550600460003373ffffffffffffffffffffffffffffffffffffffff1673ffffffffffffffffffffffffffffffffffffffff168152602001908152602001600020819080600181540180825580915050600190039060005260206000200160009091909190915055600281908060018154018082558091505060019003906000526020600020016000909190919091505550565b6060600280548060200260200160405190810160405280929190818152602001828054801561040d57602002820191906000526020600020905b8154815260200190600101908083116103f9575b5050505050905090565b60008060009054906101000a900473ffffffffffffffffffffffffffffffffffffffff16905090565b60008054906101000a900473ffffffffffffffffffffffffffffffffffffffff1681565b6002818154811061047457600080fd5b906000526020600020016000915090505481565b600460205281600052604060002081815481106104a457600080fd5b90600052602060002001600091509150505481565b60036020528060005260406000206000915054906101000a900473ffffffffffffffffffffffffffffffffffffffff1681565b6060600460003373ffffffffffffffffffffffffffffffffffffffff1673ffffffffffffffffffffffffffffffffffffffff16815260200190815260200160002080548060200260200160405190810160405280929190818152602001828054801561057757602002820191906000526020600020905b815481526020019060010190808311610563575b5050505050905090565b60008054906101000a900473ffffffffffffffffffffffffffffffffffffffff1673ffffffffffffffffffffffffffffffffffffffff163373ffffffffffffffffffffffffffffffffffffffff161461060f576040517f08c379a0000000000000000000000000000000000000000000000000000000008152600401610606906109be565b60405180910390fd5b6001600081548092919061062290610a0d565b9190505550565b6000819050919050565b61063c81610629565b82525050565b60006020820190506106576000830184610633565b92915050565b600080fd5b61066b81610629565b811461067657600080fd5b50565b60008135905061068881610662565b92915050565b6000602082840312156106a4576106a361065d565b5b60006106b284828501610679565b91505092915050565b600081519050919050565b600082825260208201905092915050565b6000819050602082019050919050565b6106f081610629565b82525050565b600061070283836106e7565b60208301905092915050565b6000602082019050919050565b6000610726826106bb565b61073081856106c6565b935061073b836106d7565b8060005b8381101561076c57815161075388826106f6565b975061075e8361070e565b92505060018101905061073f565b5085935050505092915050565b60006020820190508181036000830152610793818461071b565b905092915050565b600073ffffffffffffffffffffffffffffffffffffffff82169050919050565b60006107c68261079b565b9050919050565b6107d6816107bb565b82525050565b60006020820190506107f160008301846107cd565b92915050565b610800816107bb565b811461080b57600080fd5b50565b60008135905061081d816107f7565b92915050565b6000806040838503121561083a5761083961065d565b5b60006108488582860161080e565b925050602061085985828601610679565b9150509250929050565b600082825260208201905092915050565b7f426f6e73616920696e646578206f7574206f6620626f756e6473210000000000600082015250565b60006108aa601b83610863565b91506108b582610874565b602082019050919050565b600060208201905081810360008301526108d98161089d565b9050919050565b7f426f6e73616920697320616c7265616479206365727469666963617465640000600082015250565b6000610916601e83610863565b9150610921826108e0565b602082019050919050565b6000602082019050818103600083015261094581610909565b9050919050565b7f4f6e6c79206120636f6e7472616374206f776e65722063616e2061646420612060008201527f6e657720626f6e73616921000000000000000000000000000000000000000000602082015250565b60006109a8602b83610863565b91506109b38261094c565b604082019050919050565b600060208201905081810360008301526109d78161099b565b9050919050565b7f4e487b7100000000000000000000000000000000000000000000000000000000600052601160045260246000fd5b6000610a1882610629565b91507fffffffffffffffffffffffffffffffffffffffffffffffffffffffffffffffff8203610a4a57610a496109de565b5b60018201905091905056fea2646970667358221220e1bec8ab1e3104288ff5e1017217a34a5f587fcc78f80462e79db3ae6191f24b64736f6c634300080d0033",
  "immutableReferences": {},
  "source": "// SPDX-License-Identifier: UNLICENSED\npragma solidity ^0.8.9;\n\nimport \"../node_modules/@openzeppelin/contracts/token/ERC721/extensions/ERC721URIStorage.sol\";\nimport \"../node_modules/@openzeppelin/contracts/utils/Counters.sol\";\nimport \"../node_modules/@openzeppelin/contracts/access/Ownable.sol\";\n\ncontract BonsaiCertification {\n  address public owner;\n  uint public bonsaiIndex = 0;\n  uint[] public allCertificatedBonsais;\n\n  mapping(uint => address) public bonsaiIdxToOwnerAddress;\n  mapping(address => uint[]) public ownerAddressToBonsaiList;\n\n  constructor(uint initialBonsaiIndex) {\n    owner = msg.sender;\n    bonsaiIndex = initialBonsaiIndex;\n  }\n\n  function addBonsai() public {\n    require(msg.sender == owner, \"Only a contract owner can add a new bonsai!\");\n    bonsaiIndex++;\n  }\n\n  function adoptBonsai(uint adoptIdx) public {\n    require(adoptIdx < bonsaiIndex, \"Bonsai index out of bounds!\");\n    require(bonsaiIdxToOwnerAddress[adoptIdx] == address(0), \"Bonsai is already certificated\");\n\n    bonsaiIdxToOwnerAddress[adoptIdx] = msg.sender;\n    ownerAddressToBonsaiList[msg.sender].push(adoptIdx);\n    allCertificatedBonsais.push(adoptIdx);\n  }\n\n  function getOwner() public view returns(address) {\n    return owner;\n  }\n\n  function getAllCertificatedBonsaisByOnwer() public view returns(uint[] memory) {\n    return ownerAddressToBonsaiList[msg.sender];\n  }\n\n  function getAllCertificatedBonsais() public view returns(uint[] memory) {\n    return allCertificatedBonsais;\n  }\n  \n}\n\ncontract BonsaiToken {\n    string public name;\n    string public symbol;\n    uint256 public totalSupply;\n\n    mapping(address => uint256) public balanceOf;\n    mapping(address => mapping(address => uint256)) public allowance;\n    mapping(address => uint256) public depositOf;\n\n    event Transfer(address _from, address _to, uint256 _value);\n    event Approve(address, address, uint256);\n\n    constructor(string memory _name, string memory _symbol, uint256 _initialSupply) {\n        name = _name;\n        symbol = _symbol;\n        balanceOf[msg.sender] = _initialSupply;\n        totalSupply += _initialSupply;\n    }\n\n    function deposit() public payable {\n        depositOf[msg.sender] = msg.value;\n        // 0.1 eth 1000 token\n        uint256 totalTokenRecieve = (msg.value * 1000) / (0.1 * 10**18);\n        balanceOf[msg.sender] = totalTokenRecieve;\n        totalSupply += totalTokenRecieve;\n    }\n\n    function transfer(address _to, uint256 _value) public returns (bool success) {\n        _transfer(msg.sender, _to, _value);\n        return true;\n    }\n\n    function _transfer(address _from, address _to, uint256 _value) internal {\n        require(balanceOf[_from] >= _value, \"Insufficient balance\");\n        require(_to != address(0), \"address 0 recipient\");\n        balanceOf[_from] -= _value;\n        balanceOf[_to] += _value;\n    }\n\n    function approve(address _spender, uint256 _value) public returns (bool success) {\n        allowance[msg.sender][_spender] = _value;\n        emit Approve(msg.sender, _spender, _value);\n        return true;\n    }\n\n    function transferFrom(address _from, address _to, uint256 _value) public returns (bool success) {\n        require(allowance[_from][msg.sender] >= _value, \"Insufficient allowance\");\n        allowance[_from][msg.sender] -= _value;\n        _transfer(_from, _to, _value);\n        return true;\n    }\n}\n\ncontract SaigonWallet is ERC721URIStorage, Ownable {\n  using Counters for Counters.Counter;\n\n  struct BonsaiRwa {\n    uint bonsaiId;\n    uint price;\n    address creator;\n    bool isListed;\n  }\n\n  uint public listingPrice = 0.0016 ether;\n\n  Counters.Counter private _listedItems;\n  Counters.Counter private _bonsaiIds;\n\n  mapping(string => bool) private _usedTokenURIs;\n  mapping(uint => BonsaiRwa) private _idToBonsaiRwa;\n\n  mapping(address => mapping(uint => uint)) private _ownedTokens;\n  mapping(uint => uint) private _idToOwnedIndex;\n\n  uint256[] private _allNfts;\n  mapping(uint => uint) private _idToNftIndex;\n\n  event BonsaiRwaCreated (\n    uint bonsaiId,\n    uint price,\n    address creator,\n    bool isListed\n  );\n\n  constructor() ERC721(\"SaigonWallet\", \"SGW\") {}\n\n  function setListingPrice(uint newPrice) external onlyOwner {\n    require(newPrice > 0, \"Price must be at least 1 wei\");\n    listingPrice = newPrice;\n  }\n\n\n  function getBonsaiRwa(uint bonsaiId) public view returns (BonsaiRwa memory) {\n    return _idToBonsaiRwa[bonsaiId];\n  }\n\n  function listedItemsCount() public view returns (uint) {\n    return _listedItems.current();\n  }\n\n  function rWAssetURIExists(string memory tokenURI) public view returns (bool) {\n    return _usedTokenURIs[tokenURI] == true;\n  }\n\n  function totalSupply() public view returns (uint) {\n    return _allNfts.length;\n  }\n\n  function rWAssetByIndex(uint index) public view returns (uint) {\n    require(index < totalSupply(), \"Index out of bounds\");\n    return _allNfts[index];\n  }\n\n  function rWAssetOfOwnerByIndex(address owner, uint index) public view returns (uint) {\n    require(index < ERC721.balanceOf(owner), \"Index out of bounds\");\n    return _ownedTokens[owner][index];\n  }\n\n  function getAllNftsOnSale() public view returns (BonsaiRwa[] memory) {\n    uint allItemsCounts = totalSupply();\n    uint currentIndex = 0;\n    BonsaiRwa[] memory items = new BonsaiRwa[](_listedItems.current());\n\n    for (uint i = 0; i < allItemsCounts; i++) {\n      uint bonsaiId = rWAssetByIndex(i);\n      BonsaiRwa storage item = _idToBonsaiRwa[bonsaiId];\n\n      if (item.isListed == true) {\n        items[currentIndex] = item;\n        currentIndex += 1;\n      }\n    }\n\n    return items;\n  }\n\n  function getOwnedNfts() public view returns (BonsaiRwa[] memory) {\n    uint ownedItemsCount = ERC721.balanceOf(msg.sender);\n    BonsaiRwa[] memory items = new BonsaiRwa[](ownedItemsCount);\n\n    for (uint i = 0; i < ownedItemsCount; i++) {\n      uint bonsaiId = rWAssetOfOwnerByIndex(msg.sender, i);\n      BonsaiRwa storage item = _idToBonsaiRwa[bonsaiId];\n      items[i] = item;\n    }\n\n    return items;\n  }\n\n  function mintRWAsset(string memory tokenURI, uint price) public payable returns (uint) {\n    require(!rWAssetURIExists(tokenURI), \"RWAsset URI already exists\");\n    require(msg.value == listingPrice, \"Price must be equal to listing price\");\n\n    _bonsaiIds.increment();\n    _listedItems.increment();\n\n    uint newBonsaiId = _bonsaiIds.current();\n\n    _safeMint(msg.sender, newBonsaiId);\n    _setTokenURI(newBonsaiId, tokenURI);\n    _createBonsaiRwa(newBonsaiId, price);\n    _usedTokenURIs[tokenURI] = true;\n\n    return newBonsaiId;\n  }\n\n  function buyRwa(\n    uint bonsaiId\n  ) public payable {\n    uint price = _idToBonsaiRwa[bonsaiId].price;\n    address owner = ERC721.ownerOf(bonsaiId);\n\n    require(msg.sender != owner, \"You already own this NFT\");\n    require(msg.value == price, \"Please submit the asking price\");\n\n    _idToBonsaiRwa[bonsaiId].isListed = false;\n    _listedItems.decrement();\n\n    _transfer(owner, msg.sender, bonsaiId);\n    payable(owner).transfer(msg.value);\n  }\n\n  function placeNftOnSale(uint bonsaiId, uint newPrice) public payable {\n    require(ERC721.ownerOf(bonsaiId) == msg.sender, \"You are not owner of this nft\");\n    require(_idToBonsaiRwa[bonsaiId].isListed == false, \"Item is already on sale\");\n    require(msg.value == listingPrice, \"Price must be equal to listing price\");\n\n    _idToBonsaiRwa[bonsaiId].isListed = true;\n    _idToBonsaiRwa[bonsaiId].price = newPrice;\n    _listedItems.increment();\n  }\n\n  function _createBonsaiRwa(\n    uint bonsaiId,\n    uint price\n  ) private {\n    require(price > 0, \"Price must be at least 1 wei\");\n\n    _idToBonsaiRwa[bonsaiId] = BonsaiRwa(\n      bonsaiId,\n      price,\n      msg.sender,\n      true\n    );\n\n    emit BonsaiRwaCreated(bonsaiId, price, msg.sender, true);\n  }\n\n  function _beforeTokenTransfer(\n    address from,\n    address to,\n    uint bonsaiId,\n    uint256 \n  ) internal virtual override {\n    super._beforeTokenTransfer(from, to, bonsaiId, 1);\n\n    // minting token\n    if (from == address(0)) {\n      _addTokenToAllTokensDetailed(bonsaiId);\n    } else if (from != to) {\n      _removeTokenFromOwnerDetailed(from, bonsaiId);\n    }\n\n    if (to == address(0)) {\n      _removeTokenFromAllTokensDetailed(bonsaiId);\n    } else if (to != from) {\n      _addTokenToOwnerDetailed(to, bonsaiId);\n    }\n\n  }\n\n  function _addTokenToAllTokensDetailed(uint bonsaiId) private {\n    _idToNftIndex[bonsaiId] = _allNfts.length;\n    _allNfts.push(bonsaiId);\n  }\n\n  function _addTokenToOwnerDetailed(address to, uint bonsaiId) private {\n    uint length = ERC721.balanceOf(to);\n    _ownedTokens[to][length] = bonsaiId;\n    _idToOwnedIndex[bonsaiId] = length;\n  }\n\n  function _removeTokenFromOwnerDetailed(address from, uint bonsaiId) private {\n    uint lastTokenIndex = ERC721.balanceOf(from) - 1;\n    uint tokenIndex = _idToOwnedIndex[bonsaiId];\n\n    if (tokenIndex != lastTokenIndex) {\n      uint lastBonsaiId = _ownedTokens[from][lastTokenIndex];\n\n      _ownedTokens[from][tokenIndex] = lastBonsaiId;\n      _idToOwnedIndex[lastBonsaiId] = tokenIndex;\n    }\n\n    delete _idToOwnedIndex[bonsaiId];\n    delete _ownedTokens[from][lastTokenIndex];\n  }\n  function _removeTokenFromAllTokensDetailed(uint bonsaiId) private {\n    uint lastTokenIndex = _allNfts.length - 1;\n    uint tokenIndex = _idToNftIndex[bonsaiId];\n    uint lastBonsaiId = _allNfts[lastTokenIndex];\n\n    _allNfts[tokenIndex] = lastBonsaiId;\n    _idToNftIndex[lastBonsaiId] = tokenIndex;\n\n    delete _idToNftIndex[bonsaiId];\n    _allNfts.pop();\n  }\n}",
  "sourcePath": "D:\\Klaytn-Saigonwallet\\hackathon\\contracts\\SaigonWallet.sol",
  "compiler": {
    "name": "solc",
    "version": "0.8.13+commit.abaa5c0e.Emscripten.clang"
  },
  "schemaVersion": "3.4.16",
  "updatedAt": "2023-09-11T04:31:55.572Z",
  "devdoc": {
    "kind": "dev",
    "methods": {},
    "version": 1
  },
  "userdoc": {
    "kind": "user",
    "methods": {},
    "version": 1
  }
}