{
  "contractName": "BonsaiToken",
  "abi": [
    {
      "inputs": [
        {
          "internalType": "string",
          "name": "_name",
          "type": "string"
        },
        {
          "internalType": "string",
          "name": "_symbol",
          "type": "string"
        },
        {
          "internalType": "uint256",
          "name": "_initialSupply",
          "type": "uint256"
        }
      ],
      "stateMutability": "nonpayable",
      "type": "constructor"
    },
    {
      "anonymous": false,
      "inputs": [
        {
          "indexed": false,
          "internalType": "address",
          "name": "",
          "type": "address"
        },
        {
          "indexed": false,
          "internalType": "address",
          "name": "",
          "type": "address"
        },
        {
          "indexed": false,
          "internalType": "uint256",
          "name": "",
          "type": "uint256"
        }
      ],
      "name": "Approve",
      "type": "event"
    },
    {
      "anonymous": false,
      "inputs": [
        {
          "indexed": false,
          "internalType": "address",
          "name": "_from",
          "type": "address"
        },
        {
          "indexed": false,
          "internalType": "address",
          "name": "_to",
          "type": "address"
        },
        {
          "indexed": false,
          "internalType": "uint256",
          "name": "_value",
          "type": "uint256"
        }
      ],
      "name": "Transfer",
      "type": "event"
    },
    {
      "inputs": [
        {
          "internalType": "address",
          "name": "",
          "type": "address"
        },
        {
          "internalType": "address",
          "name": "",
          "type": "address"
        }
      ],
      "name": "allowance",
      "outputs": [
        {
          "internalType": "uint256",
          "name": "",
          "type": "uint256"
        }
      ],
      "stateMutability": "view",
      "type": "function"
    },
    {
      "inputs": [
        {
          "internalType": "address",
          "name": "",
          "type": "address"
        }
      ],
      "name": "balanceOf",
      "outputs": [
        {
          "internalType": "uint256",
          "name": "",
          "type": "uint256"
        }
      ],
      "stateMutability": "view",
      "type": "function"
    },
    {
      "inputs": [
        {
          "internalType": "address",
          "name": "",
          "type": "address"
        }
      ],
      "name": "depositOf",
      "outputs": [
        {
          "internalType": "uint256",
          "name": "",
          "type": "uint256"
        }
      ],
      "stateMutability": "view",
      "type": "function"
    },
    {
      "inputs": [],
      "name": "name",
      "outputs": [
        {
          "internalType": "string",
          "name": "",
          "type": "string"
        }
      ],
      "stateMutability": "view",
      "type": "function"
    },
    {
      "inputs": [],
      "name": "symbol",
      "outputs": [
        {
          "internalType": "string",
          "name": "",
          "type": "string"
        }
      ],
      "stateMutability": "view",
      "type": "function"
    },
    {
      "inputs": [],
      "name": "totalSupply",
      "outputs": [
        {
          "internalType": "uint256",
          "name": "",
          "type": "uint256"
        }
      ],
      "stateMutability": "view",
      "type": "function"
    },
    {
      "inputs": [],
      "name": "deposit",
      "outputs": [],
      "stateMutability": "payable",
      "type": "function"
    },
    {
      "inputs": [
        {
          "internalType": "address",
          "name": "_to",
          "type": "address"
        },
        {
          "internalType": "uint256",
          "name": "_value",
          "type": "uint256"
        }
      ],
      "name": "transfer",
      "outputs": [
        {
          "internalType": "bool",
          "name": "success",
          "type": "bool"
        }
      ],
      "stateMutability": "nonpayable",
      "type": "function"
    },
    {
      "inputs": [
        {
          "internalType": "address",
          "name": "_spender",
          "type": "address"
        },
        {
          "internalType": "uint256",
          "name": "_value",
          "type": "uint256"
        }
      ],
      "name": "approve",
      "outputs": [
        {
          "internalType": "bool",
          "name": "success",
          "type": "bool"
        }
      ],
      "stateMutability": "nonpayable",
      "type": "function"
    },
    {
      "inputs": [
        {
          "internalType": "address",
          "name": "_from",
          "type": "address"
        },
        {
          "internalType": "address",
          "name": "_to",
          "type": "address"
        },
        {
          "internalType": "uint256",
          "name": "_value",
          "type": "uint256"
        }
      ],
      "name": "transferFrom",
      "outputs": [
        {
          "internalType": "bool",
          "name": "success",
          "type": "bool"
        }
      ],
      "stateMutability": "nonpayable",
      "type": "function"
    }
  ],
  "bytecode": "0x60806040523480156200001157600080fd5b50604051620013f4380380620013f4833981810160405281019062000037919062000359565b82600090805190602001906200004f929190620000d1565b50816001908051906020019062000068929190620000d1565b5080600360003373ffffffffffffffffffffffffffffffffffffffff1673ffffffffffffffffffffffffffffffffffffffff168152602001908152602001600020819055508060026000828254620000c1919062000422565b92505081905550505050620004e3565b828054620000df90620004ae565b90600052602060002090601f0160209004810192826200010357600085556200014f565b82601f106200011e57805160ff19168380011785556200014f565b828001600101855582156200014f579182015b828111156200014e57825182559160200191906001019062000131565b5b5090506200015e919062000162565b5090565b5b808211156200017d57600081600090555060010162000163565b5090565b6000604051905090565b600080fd5b600080fd5b600080fd5b600080fd5b6000601f19601f8301169050919050565b7f4e487b7100000000000000000000000000000000000000000000000000000000600052604160045260246000fd5b620001ea826200019f565b810181811067ffffffffffffffff821117156200020c576200020b620001b0565b5b80604052505050565b60006200022162000181565b90506200022f8282620001df565b919050565b600067ffffffffffffffff821115620002525762000251620001b0565b5b6200025d826200019f565b9050602081019050919050565b60005b838110156200028a5780820151818401526020810190506200026d565b838111156200029a576000848401525b50505050565b6000620002b7620002b18462000234565b62000215565b905082815260208101848484011115620002d657620002d56200019a565b5b620002e38482856200026a565b509392505050565b600082601f83011262000303576200030262000195565b5b815162000315848260208601620002a0565b91505092915050565b6000819050919050565b62000333816200031e565b81146200033f57600080fd5b50565b600081519050620003538162000328565b92915050565b6000806000606084860312156200037557620003746200018b565b5b600084015167ffffffffffffffff81111562000396576200039562000190565b5b620003a486828701620002eb565b935050602084015167ffffffffffffffff811115620003c857620003c762000190565b5b620003d686828701620002eb565b9250506040620003e98682870162000342565b9150509250925092565b7f4e487b7100000000000000000000000000000000000000000000000000000000600052601160045260246000fd5b60006200042f826200031e565b91506200043c836200031e565b9250827fffffffffffffffffffffffffffffffffffffffffffffffffffffffffffffffff03821115620004745762000473620003f3565b5b828201905092915050565b7f4e487b7100000000000000000000000000000000000000000000000000000000600052602260045260246000fd5b60006002820490506001821680620004c757607f821691505b602082108103620004dd57620004dc6200047f565b5b50919050565b610f0180620004f36000396000f3fe6080604052600436106100915760003560e01c806370a082311161005957806370a08231146101a357806395d89b41146101e0578063a9059cbb1461020b578063d0e30db014610248578063dd62ed3e1461025257610091565b806306fdde0314610096578063095ea7b3146100c157806318160ddd146100fe57806323b872dd1461012957806323e3fbd514610166575b600080fd5b3480156100a257600080fd5b506100ab61028f565b6040516100b89190610953565b60405180910390f35b3480156100cd57600080fd5b506100e860048036038101906100e39190610a0e565b61031d565b6040516100f59190610a69565b60405180910390f35b34801561010a57600080fd5b506101136103e5565b6040516101209190610a93565b60405180910390f35b34801561013557600080fd5b50610150600480360381019061014b9190610aae565b6103eb565b60405161015d9190610a69565b60405180910390f35b34801561017257600080fd5b5061018d60048036038101906101889190610b01565b610555565b60405161019a9190610a93565b60405180910390f35b3480156101af57600080fd5b506101ca60048036038101906101c59190610b01565b61056d565b6040516101d79190610a93565b60405180910390f35b3480156101ec57600080fd5b506101f5610585565b6040516102029190610953565b60405180910390f35b34801561021757600080fd5b50610232600480360381019061022d9190610a0e565b610613565b60405161023f9190610a69565b60405180910390f35b61025061062a565b005b34801561025e57600080fd5b5061027960048036038101906102749190610b2e565b6106f3565b6040516102869190610a93565b60405180910390f35b6000805461029c90610b9d565b80601f01602080910402602001604051908101604052809291908181526020018280546102c890610b9d565b80156103155780601f106102ea57610100808354040283529160200191610315565b820191906000526020600020905b8154815290600101906020018083116102f857829003601f168201915b505050505081565b600081600460003373ffffffffffffffffffffffffffffffffffffffff1673ffffffffffffffffffffffffffffffffffffffff16815260200190815260200160002060008573ffffffffffffffffffffffffffffffffffffffff1673ffffffffffffffffffffffffffffffffffffffff168152602001908152602001600020819055507f6e11fb1b7f119e3f2fa29896ef5fdf8b8a2d0d4df6fe90ba8668e7d8b2ffa25e3384846040516103d393929190610bdd565b60405180910390a16001905092915050565b60025481565b600081600460008673ffffffffffffffffffffffffffffffffffffffff1673ffffffffffffffffffffffffffffffffffffffff16815260200190815260200160002060003373ffffffffffffffffffffffffffffffffffffffff1673ffffffffffffffffffffffffffffffffffffffff1681526020019081526020016000205410156104ac576040517f08c379a00000000000000000000000000000000000000000000000000000000081526004016104a390610c60565b60405180910390fd5b81600460008673ffffffffffffffffffffffffffffffffffffffff1673ffffffffffffffffffffffffffffffffffffffff16815260200190815260200160002060003373ffffffffffffffffffffffffffffffffffffffff1673ffffffffffffffffffffffffffffffffffffffff16815260200190815260200160002060008282546105389190610caf565b9250508190555061054a848484610718565b600190509392505050565b60056020528060005260406000206000915090505481565b60036020528060005260406000206000915090505481565b6001805461059290610b9d565b80601f01602080910402602001604051908101604052809291908181526020018280546105be90610b9d565b801561060b5780601f106105e05761010080835404028352916020019161060b565b820191906000526020600020905b8154815290600101906020018083116105ee57829003601f168201915b505050505081565b6000610620338484610718565b6001905092915050565b34600560003373ffffffffffffffffffffffffffffffffffffffff1673ffffffffffffffffffffffffffffffffffffffff16815260200190815260200160002081905550600067016345785d8a00006103e8346106879190610ce3565b6106919190610d6c565b905080600360003373ffffffffffffffffffffffffffffffffffffffff1673ffffffffffffffffffffffffffffffffffffffff1681526020019081526020016000208190555080600260008282546106e99190610d9d565b9250508190555050565b6004602052816000526040600020602052806000526040600020600091509150505481565b80600360008573ffffffffffffffffffffffffffffffffffffffff1673ffffffffffffffffffffffffffffffffffffffff16815260200190815260200160002054101561079a576040517f08c379a000000000000000000000000000000000000000000000000000000000815260040161079190610e3f565b60405180910390fd5b600073ffffffffffffffffffffffffffffffffffffffff168273ffffffffffffffffffffffffffffffffffffffff1603610809576040517f08c379a000000000000000000000000000000000000000000000000000000000815260040161080090610eab565b60405180910390fd5b80600360008573ffffffffffffffffffffffffffffffffffffffff1673ffffffffffffffffffffffffffffffffffffffff16815260200190815260200160002060008282546108589190610caf565b9250508190555080600360008473ffffffffffffffffffffffffffffffffffffffff1673ffffffffffffffffffffffffffffffffffffffff16815260200190815260200160002060008282546108ae9190610d9d565b92505081905550505050565b600081519050919050565b600082825260208201905092915050565b60005b838110156108f45780820151818401526020810190506108d9565b83811115610903576000848401525b50505050565b6000601f19601f8301169050919050565b6000610925826108ba565b61092f81856108c5565b935061093f8185602086016108d6565b61094881610909565b840191505092915050565b6000602082019050818103600083015261096d818461091a565b905092915050565b600080fd5b600073ffffffffffffffffffffffffffffffffffffffff82169050919050565b60006109a58261097a565b9050919050565b6109b58161099a565b81146109c057600080fd5b50565b6000813590506109d2816109ac565b92915050565b6000819050919050565b6109eb816109d8565b81146109f657600080fd5b50565b600081359050610a08816109e2565b92915050565b60008060408385031215610a2557610a24610975565b5b6000610a33858286016109c3565b9250506020610a44858286016109f9565b9150509250929050565b60008115159050919050565b610a6381610a4e565b82525050565b6000602082019050610a7e6000830184610a5a565b92915050565b610a8d816109d8565b82525050565b6000602082019050610aa86000830184610a84565b92915050565b600080600060608486031215610ac757610ac6610975565b5b6000610ad5868287016109c3565b9350506020610ae6868287016109c3565b9250506040610af7868287016109f9565b9150509250925092565b600060208284031215610b1757610b16610975565b5b6000610b25848285016109c3565b91505092915050565b60008060408385031215610b4557610b44610975565b5b6000610b53858286016109c3565b9250506020610b64858286016109c3565b9150509250929050565b7f4e487b7100000000000000000000000000000000000000000000000000000000600052602260045260246000fd5b60006002820490506001821680610bb557607f821691505b602082108103610bc857610bc7610b6e565b5b50919050565b610bd78161099a565b82525050565b6000606082019050610bf26000830186610bce565b610bff6020830185610bce565b610c0c6040830184610a84565b949350505050565b7f496e73756666696369656e7420616c6c6f77616e636500000000000000000000600082015250565b6000610c4a6016836108c5565b9150610c5582610c14565b602082019050919050565b60006020820190508181036000830152610c7981610c3d565b9050919050565b7f4e487b7100000000000000000000000000000000000000000000000000000000600052601160045260246000fd5b6000610cba826109d8565b9150610cc5836109d8565b925082821015610cd857610cd7610c80565b5b828203905092915050565b6000610cee826109d8565b9150610cf9836109d8565b9250817fffffffffffffffffffffffffffffffffffffffffffffffffffffffffffffffff0483118215151615610d3257610d31610c80565b5b828202905092915050565b7f4e487b7100000000000000000000000000000000000000000000000000000000600052601260045260246000fd5b6000610d77826109d8565b9150610d82836109d8565b925082610d9257610d91610d3d565b5b828204905092915050565b6000610da8826109d8565b9150610db3836109d8565b9250827fffffffffffffffffffffffffffffffffffffffffffffffffffffffffffffffff03821115610de857610de7610c80565b5b828201905092915050565b7f496e73756666696369656e742062616c616e6365000000000000000000000000600082015250565b6000610e296014836108c5565b9150610e3482610df3565b602082019050919050565b60006020820190508181036000830152610e5881610e1c565b9050919050565b7f61646472657373203020726563697069656e7400000000000000000000000000600082015250565b6000610e956013836108c5565b9150610ea082610e5f565b602082019050919050565b60006020820190508181036000830152610ec481610e88565b905091905056fea2646970667358221220307bff8fa9e167610911a9b9c6f98eb0fd05c504dfba8a97feaf824fd9366d0c64736f6c634300080d0033",
  "immutableReferences": {},
  "source": "// SPDX-License-Identifier: UNLICENSED\npragma solidity ^0.8.9;\n\nimport \"../node_modules/@openzeppelin/contracts/token/ERC721/extensions/ERC721URIStorage.sol\";\nimport \"../node_modules/@openzeppelin/contracts/utils/Counters.sol\";\nimport \"../node_modules/@openzeppelin/contracts/access/Ownable.sol\";\n\ncontract BonsaiCertification {\n  address public owner;\n  uint public bonsaiIndex = 0;\n  uint[] public allCertificatedBonsais;\n\n  mapping(uint => address) public bonsaiIdxToOwnerAddress;\n  mapping(address => uint[]) public ownerAddressToBonsaiList;\n\n  constructor(uint initialBonsaiIndex) {\n    owner = msg.sender;\n    bonsaiIndex = initialBonsaiIndex;\n  }\n\n  function addBonsai() public {\n    require(msg.sender == owner, \"Only a contract owner can add a new bonsai!\");\n    bonsaiIndex++;\n  }\n\n  function adoptBonsai(uint adoptIdx) public {\n    require(adoptIdx < bonsaiIndex, \"Bonsai index out of bounds!\");\n    require(bonsaiIdxToOwnerAddress[adoptIdx] == address(0), \"Bonsai is already certificated\");\n\n    bonsaiIdxToOwnerAddress[adoptIdx] = msg.sender;\n    ownerAddressToBonsaiList[msg.sender].push(adoptIdx);\n    allCertificatedBonsais.push(adoptIdx);\n  }\n\n  function getOwner() public view returns(address) {\n    return owner;\n  }\n\n  function getAllCertificatedBonsaisByOnwer() public view returns(uint[] memory) {\n    return ownerAddressToBonsaiList[msg.sender];\n  }\n\n  function getAllCertificatedBonsais() public view returns(uint[] memory) {\n    return allCertificatedBonsais;\n  }\n  \n}\n\ncontract BonsaiToken {\n    string public name;\n    string public symbol;\n    uint256 public totalSupply;\n\n    mapping(address => uint256) public balanceOf;\n    mapping(address => mapping(address => uint256)) public allowance;\n    mapping(address => uint256) public depositOf;\n\n    event Transfer(address _from, address _to, uint256 _value);\n    event Approve(address, address, uint256);\n\n    constructor(string memory _name, string memory _symbol, uint256 _initialSupply) {\n        name = _name;\n        symbol = _symbol;\n        balanceOf[msg.sender] = _initialSupply;\n        totalSupply += _initialSupply;\n    }\n\n    function deposit() public payable {\n        depositOf[msg.sender] = msg.value;\n        // 0.1 eth 1000 token\n        uint256 totalTokenRecieve = (msg.value * 1000) / (0.1 * 10**18);\n        balanceOf[msg.sender] = totalTokenRecieve;\n        totalSupply += totalTokenRecieve;\n    }\n\n    function transfer(address _to, uint256 _value) public returns (bool success) {\n        _transfer(msg.sender, _to, _value);\n        return true;\n    }\n\n    function _transfer(address _from, address _to, uint256 _value) internal {\n        require(balanceOf[_from] >= _value, \"Insufficient balance\");\n        require(_to != address(0), \"address 0 recipient\");\n        balanceOf[_from] -= _value;\n        balanceOf[_to] += _value;\n    }\n\n    function approve(address _spender, uint256 _value) public returns (bool success) {\n        allowance[msg.sender][_spender] = _value;\n        emit Approve(msg.sender, _spender, _value);\n        return true;\n    }\n\n    function transferFrom(address _from, address _to, uint256 _value) public returns (bool success) {\n        require(allowance[_from][msg.sender] >= _value, \"Insufficient allowance\");\n        allowance[_from][msg.sender] -= _value;\n        _transfer(_from, _to, _value);\n        return true;\n    }\n}\n\ncontract SaigonWallet is ERC721URIStorage, Ownable {\n  using Counters for Counters.Counter;\n\n  struct BonsaiRwa {\n    uint bonsaiId;\n    uint price;\n    address creator;\n    bool isListed;\n  }\n\n  uint public listingPrice = 0.0016 ether;\n\n  Counters.Counter private _listedItems;\n  Counters.Counter private _bonsaiIds;\n\n  mapping(string => bool) private _usedTokenURIs;\n  mapping(uint => BonsaiRwa) private _idToBonsaiRwa;\n\n  mapping(address => mapping(uint => uint)) private _ownedTokens;\n  mapping(uint => uint) private _idToOwnedIndex;\n\n  uint256[] private _allNfts;\n  mapping(uint => uint) private _idToNftIndex;\n\n  event BonsaiRwaCreated (\n    uint bonsaiId,\n    uint price,\n    address creator,\n    bool isListed\n  );\n\n  constructor() ERC721(\"SaigonWallet\", \"SGW\") {}\n\n  function setListingPrice(uint newPrice) external onlyOwner {\n    require(newPrice > 0, \"Price must be at least 1 wei\");\n    listingPrice = newPrice;\n  }\n\n\n  function getBonsaiRwa(uint bonsaiId) public view returns (BonsaiRwa memory) {\n    return _idToBonsaiRwa[bonsaiId];\n  }\n\n  function listedItemsCount() public view returns (uint) {\n    return _listedItems.current();\n  }\n\n  function rWAssetURIExists(string memory tokenURI) public view returns (bool) {\n    return _usedTokenURIs[tokenURI] == true;\n  }\n\n  function totalSupply() public view returns (uint) {\n    return _allNfts.length;\n  }\n\n  function rWAssetByIndex(uint index) public view returns (uint) {\n    require(index < totalSupply(), \"Index out of bounds\");\n    return _allNfts[index];\n  }\n\n  function rWAssetOfOwnerByIndex(address owner, uint index) public view returns (uint) {\n    require(index < ERC721.balanceOf(owner), \"Index out of bounds\");\n    return _ownedTokens[owner][index];\n  }\n\n  function getAllNftsOnSale() public view returns (BonsaiRwa[] memory) {\n    uint allItemsCounts = totalSupply();\n    uint currentIndex = 0;\n    BonsaiRwa[] memory items = new BonsaiRwa[](_listedItems.current());\n\n    for (uint i = 0; i < allItemsCounts; i++) {\n      uint bonsaiId = rWAssetByIndex(i);\n      BonsaiRwa storage item = _idToBonsaiRwa[bonsaiId];\n\n      if (item.isListed == true) {\n        items[currentIndex] = item;\n        currentIndex += 1;\n      }\n    }\n\n    return items;\n  }\n\n  function getOwnedNfts() public view returns (BonsaiRwa[] memory) {\n    uint ownedItemsCount = ERC721.balanceOf(msg.sender);\n    BonsaiRwa[] memory items = new BonsaiRwa[](ownedItemsCount);\n\n    for (uint i = 0; i < ownedItemsCount; i++) {\n      uint bonsaiId = rWAssetOfOwnerByIndex(msg.sender, i);\n      BonsaiRwa storage item = _idToBonsaiRwa[bonsaiId];\n      items[i] = item;\n    }\n\n    return items;\n  }\n\n  function mintRWAsset(string memory tokenURI, uint price) public payable returns (uint) {\n    require(!rWAssetURIExists(tokenURI), \"RWAsset URI already exists\");\n    require(msg.value == listingPrice, \"Price must be equal to listing price\");\n\n    _bonsaiIds.increment();\n    _listedItems.increment();\n\n    uint newBonsaiId = _bonsaiIds.current();\n\n    _safeMint(msg.sender, newBonsaiId);\n    _setTokenURI(newBonsaiId, tokenURI);\n    _createBonsaiRwa(newBonsaiId, price);\n    _usedTokenURIs[tokenURI] = true;\n\n    return newBonsaiId;\n  }\n\n  function buyRwa(\n    uint bonsaiId\n  ) public payable {\n    uint price = _idToBonsaiRwa[bonsaiId].price;\n    address owner = ERC721.ownerOf(bonsaiId);\n\n    require(msg.sender != owner, \"You already own this NFT\");\n    require(msg.value == price, \"Please submit the asking price\");\n\n    _idToBonsaiRwa[bonsaiId].isListed = false;\n    _listedItems.decrement();\n\n    _transfer(owner, msg.sender, bonsaiId);\n    payable(owner).transfer(msg.value);\n  }\n\n  function placeNftOnSale(uint bonsaiId, uint newPrice) public payable {\n    require(ERC721.ownerOf(bonsaiId) == msg.sender, \"You are not owner of this nft\");\n    require(_idToBonsaiRwa[bonsaiId].isListed == false, \"Item is already on sale\");\n    require(msg.value == listingPrice, \"Price must be equal to listing price\");\n\n    _idToBonsaiRwa[bonsaiId].isListed = true;\n    _idToBonsaiRwa[bonsaiId].price = newPrice;\n    _listedItems.increment();\n  }\n\n  function _createBonsaiRwa(\n    uint bonsaiId,\n    uint price\n  ) private {\n    require(price > 0, \"Price must be at least 1 wei\");\n\n    _idToBonsaiRwa[bonsaiId] = BonsaiRwa(\n      bonsaiId,\n      price,\n      msg.sender,\n      true\n    );\n\n    emit BonsaiRwaCreated(bonsaiId, price, msg.sender, true);\n  }\n\n  function _beforeTokenTransfer(\n    address from,\n    address to,\n    uint bonsaiId,\n    uint256 \n  ) internal virtual override {\n    super._beforeTokenTransfer(from, to, bonsaiId, 1);\n\n    // minting token\n    if (from == address(0)) {\n      _addTokenToAllTokensDetailed(bonsaiId);\n    } else if (from != to) {\n      _removeTokenFromOwnerDetailed(from, bonsaiId);\n    }\n\n    if (to == address(0)) {\n      _removeTokenFromAllTokensDetailed(bonsaiId);\n    } else if (to != from) {\n      _addTokenToOwnerDetailed(to, bonsaiId);\n    }\n\n  }\n\n  function _addTokenToAllTokensDetailed(uint bonsaiId) private {\n    _idToNftIndex[bonsaiId] = _allNfts.length;\n    _allNfts.push(bonsaiId);\n  }\n\n  function _addTokenToOwnerDetailed(address to, uint bonsaiId) private {\n    uint length = ERC721.balanceOf(to);\n    _ownedTokens[to][length] = bonsaiId;\n    _idToOwnedIndex[bonsaiId] = length;\n  }\n\n  function _removeTokenFromOwnerDetailed(address from, uint bonsaiId) private {\n    uint lastTokenIndex = ERC721.balanceOf(from) - 1;\n    uint tokenIndex = _idToOwnedIndex[bonsaiId];\n\n    if (tokenIndex != lastTokenIndex) {\n      uint lastBonsaiId = _ownedTokens[from][lastTokenIndex];\n\n      _ownedTokens[from][tokenIndex] = lastBonsaiId;\n      _idToOwnedIndex[lastBonsaiId] = tokenIndex;\n    }\n\n    delete _idToOwnedIndex[bonsaiId];\n    delete _ownedTokens[from][lastTokenIndex];\n  }\n  function _removeTokenFromAllTokensDetailed(uint bonsaiId) private {\n    uint lastTokenIndex = _allNfts.length - 1;\n    uint tokenIndex = _idToNftIndex[bonsaiId];\n    uint lastBonsaiId = _allNfts[lastTokenIndex];\n\n    _allNfts[tokenIndex] = lastBonsaiId;\n    _idToNftIndex[lastBonsaiId] = tokenIndex;\n\n    delete _idToNftIndex[bonsaiId];\n    _allNfts.pop();\n  }\n}",
  "sourcePath": "D:\\Klaytn-Saigonwallet\\hackathon\\contracts\\SaigonWallet.sol",
  "compiler": {
    "name": "solc",
    "version": "0.8.13+commit.abaa5c0e.Emscripten.clang"
  },
  "schemaVersion": "3.4.16",
  "updatedAt": "2023-09-11T04:31:55.584Z",
  "devdoc": {
    "kind": "dev",
    "methods": {},
    "version": 1
  },
  "userdoc": {
    "kind": "user",
    "methods": {},
    "version": 1
  }
}