{
  "contractName": "SaigonWallet",
  "abi": [
    {
      "inputs": [],
      "stateMutability": "nonpayable",
      "type": "constructor"
    },
    {
      "anonymous": false,
      "inputs": [
        {
          "indexed": true,
          "internalType": "address",
          "name": "owner",
          "type": "address"
        },
        {
          "indexed": true,
          "internalType": "address",
          "name": "approved",
          "type": "address"
        },
        {
          "indexed": true,
          "internalType": "uint256",
          "name": "tokenId",
          "type": "uint256"
        }
      ],
      "name": "Approval",
      "type": "event"
    },
    {
      "anonymous": false,
      "inputs": [
        {
          "indexed": true,
          "internalType": "address",
          "name": "owner",
          "type": "address"
        },
        {
          "indexed": true,
          "internalType": "address",
          "name": "operator",
          "type": "address"
        },
        {
          "indexed": false,
          "internalType": "bool",
          "name": "approved",
          "type": "bool"
        }
      ],
      "name": "ApprovalForAll",
      "type": "event"
    },
    {
      "anonymous": false,
      "inputs": [
        {
          "indexed": false,
          "internalType": "uint256",
          "name": "bonsaiId",
          "type": "uint256"
        },
        {
          "indexed": false,
          "internalType": "uint256",
          "name": "price",
          "type": "uint256"
        },
        {
          "indexed": false,
          "internalType": "address",
          "name": "creator",
          "type": "address"
        },
        {
          "indexed": false,
          "internalType": "bool",
          "name": "isListed",
          "type": "bool"
        }
      ],
      "name": "BonsaiRwaCreated",
      "type": "event"
    },
    {
      "anonymous": false,
      "inputs": [
        {
          "indexed": true,
          "internalType": "address",
          "name": "previousOwner",
          "type": "address"
        },
        {
          "indexed": true,
          "internalType": "address",
          "name": "newOwner",
          "type": "address"
        }
      ],
      "name": "OwnershipTransferred",
      "type": "event"
    },
    {
      "anonymous": false,
      "inputs": [
        {
          "indexed": true,
          "internalType": "address",
          "name": "from",
          "type": "address"
        },
        {
          "indexed": true,
          "internalType": "address",
          "name": "to",
          "type": "address"
        },
        {
          "indexed": true,
          "internalType": "uint256",
          "name": "tokenId",
          "type": "uint256"
        }
      ],
      "name": "Transfer",
      "type": "event"
    },
    {
      "inputs": [
        {
          "internalType": "address",
          "name": "to",
          "type": "address"
        },
        {
          "internalType": "uint256",
          "name": "tokenId",
          "type": "uint256"
        }
      ],
      "name": "approve",
      "outputs": [],
      "stateMutability": "nonpayable",
      "type": "function"
    },
    {
      "inputs": [
        {
          "internalType": "address",
          "name": "owner",
          "type": "address"
        }
      ],
      "name": "balanceOf",
      "outputs": [
        {
          "internalType": "uint256",
          "name": "",
          "type": "uint256"
        }
      ],
      "stateMutability": "view",
      "type": "function",
      "constant": true
    },
    {
      "inputs": [
        {
          "internalType": "uint256",
          "name": "tokenId",
          "type": "uint256"
        }
      ],
      "name": "getApproved",
      "outputs": [
        {
          "internalType": "address",
          "name": "",
          "type": "address"
        }
      ],
      "stateMutability": "view",
      "type": "function",
      "constant": true
    },
    {
      "inputs": [
        {
          "internalType": "address",
          "name": "owner",
          "type": "address"
        },
        {
          "internalType": "address",
          "name": "operator",
          "type": "address"
        }
      ],
      "name": "isApprovedForAll",
      "outputs": [
        {
          "internalType": "bool",
          "name": "",
          "type": "bool"
        }
      ],
      "stateMutability": "view",
      "type": "function",
      "constant": true
    },
    {
      "inputs": [],
      "name": "listingPrice",
      "outputs": [
        {
          "internalType": "uint256",
          "name": "",
          "type": "uint256"
        }
      ],
      "stateMutability": "view",
      "type": "function",
      "constant": true
    },
    {
      "inputs": [],
      "name": "name",
      "outputs": [
        {
          "internalType": "string",
          "name": "",
          "type": "string"
        }
      ],
      "stateMutability": "view",
      "type": "function",
      "constant": true
    },
    {
      "inputs": [],
      "name": "owner",
      "outputs": [
        {
          "internalType": "address",
          "name": "",
          "type": "address"
        }
      ],
      "stateMutability": "view",
      "type": "function",
      "constant": true
    },
    {
      "inputs": [
        {
          "internalType": "uint256",
          "name": "tokenId",
          "type": "uint256"
        }
      ],
      "name": "ownerOf",
      "outputs": [
        {
          "internalType": "address",
          "name": "",
          "type": "address"
        }
      ],
      "stateMutability": "view",
      "type": "function",
      "constant": true
    },
    {
      "inputs": [],
      "name": "renounceOwnership",
      "outputs": [],
      "stateMutability": "nonpayable",
      "type": "function"
    },
    {
      "inputs": [
        {
          "internalType": "address",
          "name": "from",
          "type": "address"
        },
        {
          "internalType": "address",
          "name": "to",
          "type": "address"
        },
        {
          "internalType": "uint256",
          "name": "tokenId",
          "type": "uint256"
        }
      ],
      "name": "safeTransferFrom",
      "outputs": [],
      "stateMutability": "nonpayable",
      "type": "function"
    },
    {
      "inputs": [
        {
          "internalType": "address",
          "name": "from",
          "type": "address"
        },
        {
          "internalType": "address",
          "name": "to",
          "type": "address"
        },
        {
          "internalType": "uint256",
          "name": "tokenId",
          "type": "uint256"
        },
        {
          "internalType": "bytes",
          "name": "data",
          "type": "bytes"
        }
      ],
      "name": "safeTransferFrom",
      "outputs": [],
      "stateMutability": "nonpayable",
      "type": "function"
    },
    {
      "inputs": [
        {
          "internalType": "address",
          "name": "operator",
          "type": "address"
        },
        {
          "internalType": "bool",
          "name": "approved",
          "type": "bool"
        }
      ],
      "name": "setApprovalForAll",
      "outputs": [],
      "stateMutability": "nonpayable",
      "type": "function"
    },
    {
      "inputs": [
        {
          "internalType": "bytes4",
          "name": "interfaceId",
          "type": "bytes4"
        }
      ],
      "name": "supportsInterface",
      "outputs": [
        {
          "internalType": "bool",
          "name": "",
          "type": "bool"
        }
      ],
      "stateMutability": "view",
      "type": "function",
      "constant": true
    },
    {
      "inputs": [],
      "name": "symbol",
      "outputs": [
        {
          "internalType": "string",
          "name": "",
          "type": "string"
        }
      ],
      "stateMutability": "view",
      "type": "function",
      "constant": true
    },
    {
      "inputs": [
        {
          "internalType": "uint256",
          "name": "tokenId",
          "type": "uint256"
        }
      ],
      "name": "tokenURI",
      "outputs": [
        {
          "internalType": "string",
          "name": "",
          "type": "string"
        }
      ],
      "stateMutability": "view",
      "type": "function",
      "constant": true
    },
    {
      "inputs": [
        {
          "internalType": "address",
          "name": "from",
          "type": "address"
        },
        {
          "internalType": "address",
          "name": "to",
          "type": "address"
        },
        {
          "internalType": "uint256",
          "name": "tokenId",
          "type": "uint256"
        }
      ],
      "name": "transferFrom",
      "outputs": [],
      "stateMutability": "nonpayable",
      "type": "function"
    },
    {
      "inputs": [
        {
          "internalType": "address",
          "name": "newOwner",
          "type": "address"
        }
      ],
      "name": "transferOwnership",
      "outputs": [],
      "stateMutability": "nonpayable",
      "type": "function"
    },
    {
      "inputs": [
        {
          "internalType": "uint256",
          "name": "newPrice",
          "type": "uint256"
        }
      ],
      "name": "setListingPrice",
      "outputs": [],
      "stateMutability": "nonpayable",
      "type": "function"
    },
    {
      "inputs": [
        {
          "internalType": "uint256",
          "name": "bonsaiId",
          "type": "uint256"
        }
      ],
      "name": "getBonsaiRwa",
      "outputs": [
        {
          "components": [
            {
              "internalType": "uint256",
              "name": "bonsaiId",
              "type": "uint256"
            },
            {
              "internalType": "uint256",
              "name": "price",
              "type": "uint256"
            },
            {
              "internalType": "address",
              "name": "creator",
              "type": "address"
            },
            {
              "internalType": "bool",
              "name": "isListed",
              "type": "bool"
            }
          ],
          "internalType": "struct SaigonWallet.BonsaiRwa",
          "name": "",
          "type": "tuple"
        }
      ],
      "stateMutability": "view",
      "type": "function",
      "constant": true
    },
    {
      "inputs": [],
      "name": "listedItemsCount",
      "outputs": [
        {
          "internalType": "uint256",
          "name": "",
          "type": "uint256"
        }
      ],
      "stateMutability": "view",
      "type": "function",
      "constant": true
    },
    {
      "inputs": [
        {
          "internalType": "string",
          "name": "tokenURI",
          "type": "string"
        }
      ],
      "name": "rWAssetURIExists",
      "outputs": [
        {
          "internalType": "bool",
          "name": "",
          "type": "bool"
        }
      ],
      "stateMutability": "view",
      "type": "function",
      "constant": true
    },
    {
      "inputs": [],
      "name": "totalSupply",
      "outputs": [
        {
          "internalType": "uint256",
          "name": "",
          "type": "uint256"
        }
      ],
      "stateMutability": "view",
      "type": "function",
      "constant": true
    },
    {
      "inputs": [
        {
          "internalType": "uint256",
          "name": "index",
          "type": "uint256"
        }
      ],
      "name": "rWAssetByIndex",
      "outputs": [
        {
          "internalType": "uint256",
          "name": "",
          "type": "uint256"
        }
      ],
      "stateMutability": "view",
      "type": "function",
      "constant": true
    },
    {
      "inputs": [
        {
          "internalType": "address",
          "name": "owner",
          "type": "address"
        },
        {
          "internalType": "uint256",
          "name": "index",
          "type": "uint256"
        }
      ],
      "name": "rWAssetOfOwnerByIndex",
      "outputs": [
        {
          "internalType": "uint256",
          "name": "",
          "type": "uint256"
        }
      ],
      "stateMutability": "view",
      "type": "function",
      "constant": true
    },
    {
      "inputs": [],
      "name": "getAllNftsOnSale",
      "outputs": [
        {
          "components": [
            {
              "internalType": "uint256",
              "name": "bonsaiId",
              "type": "uint256"
            },
            {
              "internalType": "uint256",
              "name": "price",
              "type": "uint256"
            },
            {
              "internalType": "address",
              "name": "creator",
              "type": "address"
            },
            {
              "internalType": "bool",
              "name": "isListed",
              "type": "bool"
            }
          ],
          "internalType": "struct SaigonWallet.BonsaiRwa[]",
          "name": "",
          "type": "tuple[]"
        }
      ],
      "stateMutability": "view",
      "type": "function",
      "constant": true
    },
    {
      "inputs": [],
      "name": "getOwnedNfts",
      "outputs": [
        {
          "components": [
            {
              "internalType": "uint256",
              "name": "bonsaiId",
              "type": "uint256"
            },
            {
              "internalType": "uint256",
              "name": "price",
              "type": "uint256"
            },
            {
              "internalType": "address",
              "name": "creator",
              "type": "address"
            },
            {
              "internalType": "bool",
              "name": "isListed",
              "type": "bool"
            }
          ],
          "internalType": "struct SaigonWallet.BonsaiRwa[]",
          "name": "",
          "type": "tuple[]"
        }
      ],
      "stateMutability": "view",
      "type": "function",
      "constant": true
    },
    {
      "inputs": [
        {
          "internalType": "string",
          "name": "tokenURI",
          "type": "string"
        },
        {
          "internalType": "uint256",
          "name": "price",
          "type": "uint256"
        }
      ],
      "name": "mintRWAsset",
      "outputs": [
        {
          "internalType": "uint256",
          "name": "",
          "type": "uint256"
        }
      ],
      "stateMutability": "payable",
      "type": "function",
      "payable": true
    },
    {
      "inputs": [
        {
          "internalType": "uint256",
          "name": "bonsaiId",
          "type": "uint256"
        }
      ],
      "name": "buyRwa",
      "outputs": [],
      "stateMutability": "payable",
      "type": "function",
      "payable": true
    },
    {
      "inputs": [
        {
          "internalType": "uint256",
          "name": "bonsaiId",
          "type": "uint256"
        },
        {
          "internalType": "uint256",
          "name": "newPrice",
          "type": "uint256"
        }
      ],
      "name": "placeNftOnSale",
      "outputs": [],
      "stateMutability": "payable",
      "type": "function",
      "payable": true
    }
  ],
  "bytecode": "0x60806040526605af3107a400006008553480156200001c57600080fd5b506040518060400160405280600c81526020017f536169676f6e57616c6c657400000000000000000000000000000000000000008152506040518060400160405280600381526020017f53475700000000000000000000000000000000000000000000000000000000008152508160009080519060200190620000a1929190620001b1565b508060019080519060200190620000ba929190620001b1565b505050620000dd620000d1620000e360201b60201c565b620000eb60201b60201c565b620002c5565b600033905090565b6000600760009054906101000a900473ffffffffffffffffffffffffffffffffffffffff16905081600760006101000a81548173ffffffffffffffffffffffffffffffffffffffff021916908373ffffffffffffffffffffffffffffffffffffffff1602179055508173ffffffffffffffffffffffffffffffffffffffff168173ffffffffffffffffffffffffffffffffffffffff167f8be0079c531659141344cd1fd0a4f28419497f9722a3daafe3b4186f6b6457e060405160405180910390a35050565b828054620001bf9062000290565b90600052602060002090601f016020900481019282620001e357600085556200022f565b82601f10620001fe57805160ff19168380011785556200022f565b828001600101855582156200022f579182015b828111156200022e57825182559160200191906001019062000211565b5b5090506200023e919062000242565b5090565b5b808211156200025d57600081600090555060010162000243565b5090565b7f4e487b7100000000000000000000000000000000000000000000000000000000600052602260045260246000fd5b60006002820490506001821680620002a957607f821691505b602082108103620002bf57620002be62000261565b5b50919050565b61486880620002d56000396000f3fe6080604052600436106101c25760003560e01c8063715018a6116100f7578063c78f19f911610095578063df23fa9211610064578063df23fa921461064c578063e985e9c51461067c578063f1ed272d146106b9578063f2fde38b146106f6576101c2565b8063c78f19f91461057c578063c87b56dd146105a7578063ccb4918d146105e4578063d9e5ee291461060f576101c2565b80638da5cb5b116100d15780638da5cb5b146104d457806395d89b41146104ff578063a22cb4651461052a578063b88d4fde14610553576101c2565b8063715018a6146104785780637c726b691461048f578063889ba574146104b8576101c2565b806323b872dd1161016457806342842e0e1161013e57806342842e0e146103aa5780636352211e146103d357806370a082311461041057806370cbcb431461044d576101c2565b806323b872dd1461031957806336b536be146103425780633a9095ae1461036d576101c2565b8063081812fc116101a0578063081812fc1461026c578063095ea7b3146102a957806318160ddd146102d257806321f422e5146102fd576101c2565b806301ffc9a7146101c757806305a03b191461020457806306fdde0314610241575b600080fd5b3480156101d357600080fd5b506101ee60048036038101906101e991906130d5565b61071f565b6040516101fb919061311d565b60405180910390f35b34801561021057600080fd5b5061022b600480360381019061022691906131cc565b610801565b604051610238919061321b565b60405180910390f35b34801561024d57600080fd5b506102566108a6565b60405161026391906132cf565b60405180910390f35b34801561027857600080fd5b50610293600480360381019061028e91906132f1565b610938565b6040516102a0919061332d565b60405180910390f35b3480156102b557600080fd5b506102d060048036038101906102cb91906131cc565b61097e565b005b3480156102de57600080fd5b506102e7610a95565b6040516102f4919061321b565b60405180910390f35b61031760048036038101906103129190613348565b610aa2565b005b34801561032557600080fd5b50610340600480360381019061033b9190613388565b610c1e565b005b34801561034e57600080fd5b50610357610c7e565b604051610364919061350c565b60405180910390f35b34801561037957600080fd5b50610394600480360381019061038f9190613663565b610e18565b6040516103a1919061311d565b60405180910390f35b3480156103b657600080fd5b506103d160048036038101906103cc9190613388565b610e54565b005b3480156103df57600080fd5b506103fa60048036038101906103f591906132f1565b610e74565b604051610407919061332d565b60405180910390f35b34801561041c57600080fd5b50610437600480360381019061043291906136ac565b610efa565b604051610444919061321b565b60405180910390f35b34801561045957600080fd5b50610462610fb1565b60405161046f919061350c565b60405180910390f35b34801561048457600080fd5b5061048d611115565b005b34801561049b57600080fd5b506104b660048036038101906104b191906132f1565b611129565b005b6104d260048036038101906104cd91906132f1565b61117e565b005b3480156104e057600080fd5b506104e96112e6565b6040516104f6919061332d565b60405180910390f35b34801561050b57600080fd5b50610514611310565b60405161052191906132cf565b60405180910390f35b34801561053657600080fd5b50610551600480360381019061054c9190613705565b6113a2565b005b34801561055f57600080fd5b5061057a600480360381019061057591906137e6565b6113b8565b005b34801561058857600080fd5b5061059161141a565b60405161059e919061321b565b60405180910390f35b3480156105b357600080fd5b506105ce60048036038101906105c991906132f1565b611420565b6040516105db91906132cf565b60405180910390f35b3480156105f057600080fd5b506105f9611532565b604051610606919061321b565b60405180910390f35b34801561061b57600080fd5b50610636600480360381019061063191906132f1565b611543565b604051610643919061321b565b60405180910390f35b61066660048036038101906106619190613869565b6115b4565b604051610673919061321b565b60405180910390f35b34801561068857600080fd5b506106a3600480360381019061069e91906138c5565b6116c4565b6040516106b0919061311d565b60405180910390f35b3480156106c557600080fd5b506106e060048036038101906106db91906132f1565b611758565b6040516106ed919061395a565b60405180910390f35b34801561070257600080fd5b5061071d600480360381019061071891906136ac565b61180a565b005b60007f80ac58cd000000000000000000000000000000000000000000000000000000007bffffffffffffffffffffffffffffffffffffffffffffffffffffffff1916827bffffffffffffffffffffffffffffffffffffffffffffffffffffffff191614806107ea57507f5b5e139f000000000000000000000000000000000000000000000000000000007bffffffffffffffffffffffffffffffffffffffffffffffffffffffff1916827bffffffffffffffffffffffffffffffffffffffffffffffffffffffff1916145b806107fa57506107f98261188d565b5b9050919050565b600061080c83610efa565b821061084d576040517f08c379a0000000000000000000000000000000000000000000000000000000008152600401610844906139c1565b60405180910390fd5b600d60008473ffffffffffffffffffffffffffffffffffffffff1673ffffffffffffffffffffffffffffffffffffffff168152602001908152602001600020600083815260200190815260200160002054905092915050565b6060600080546108b590613a10565b80601f01602080910402602001604051908101604052809291908181526020018280546108e190613a10565b801561092e5780601f106109035761010080835404028352916020019161092e565b820191906000526020600020905b81548152906001019060200180831161091157829003601f168201915b5050505050905090565b6000610943826118f7565b6004600083815260200190815260200160002060009054906101000a900473ffffffffffffffffffffffffffffffffffffffff169050919050565b600061098982610e74565b90508073ffffffffffffffffffffffffffffffffffffffff168373ffffffffffffffffffffffffffffffffffffffff16036109f9576040517f08c379a00000000000000000000000000000000000000000000000000000000081526004016109f090613ab3565b60405180910390fd5b8073ffffffffffffffffffffffffffffffffffffffff16610a18611942565b73ffffffffffffffffffffffffffffffffffffffff161480610a475750610a4681610a41611942565b6116c4565b5b610a86576040517f08c379a0000000000000000000000000000000000000000000000000000000008152600401610a7d90613b45565b60405180910390fd5b610a90838361194a565b505050565b6000600f80549050905090565b3373ffffffffffffffffffffffffffffffffffffffff16610ac283610e74565b73ffffffffffffffffffffffffffffffffffffffff1614610b18576040517f08c379a0000000000000000000000000000000000000000000000000000000008152600401610b0f90613bb1565b60405180910390fd5b60001515600c600084815260200190815260200160002060020160149054906101000a900460ff16151514610b82576040517f08c379a0000000000000000000000000000000000000000000000000000000008152600401610b7990613c1d565b60405180910390fd5b6008543414610bc6576040517f08c379a0000000000000000000000000000000000000000000000000000000008152600401610bbd90613caf565b60405180910390fd5b6001600c600084815260200190815260200160002060020160146101000a81548160ff02191690831515021790555080600c600084815260200190815260200160002060010181905550610c1a6009611a03565b5050565b610c2f610c29611942565b82611a19565b610c6e576040517f08c379a0000000000000000000000000000000000000000000000000000000008152600401610c6590613d41565b60405180910390fd5b610c79838383611aae565b505050565b60606000610c8a610a95565b9050600080610c996009611da7565b67ffffffffffffffff811115610cb257610cb1613538565b5b604051908082528060200260200182016040528015610ceb57816020015b610cd8612f86565b815260200190600190039081610cd05790505b50905060005b83811015610e0e576000610d0482611543565b90506000600c60008381526020019081526020016000209050600115158160020160149054906101000a900460ff16151503610df9578060405180608001604052908160008201548152602001600182015481526020016002820160009054906101000a900473ffffffffffffffffffffffffffffffffffffffff1673ffffffffffffffffffffffffffffffffffffffff1673ffffffffffffffffffffffffffffffffffffffff1681526020016002820160149054906101000a900460ff161515151581525050848681518110610dde57610ddd613d61565b5b6020026020010181905250600185610df69190613dbf565b94505b50508080610e0690613e15565b915050610cf1565b5080935050505090565b600060011515600b83604051610e2e9190613e99565b908152602001604051809103902060009054906101000a900460ff161515149050919050565b610e6f838383604051806020016040528060008152506113b8565b505050565b600080610e8083611db5565b9050600073ffffffffffffffffffffffffffffffffffffffff168173ffffffffffffffffffffffffffffffffffffffff1603610ef1576040517f08c379a0000000000000000000000000000000000000000000000000000000008152600401610ee890613efc565b60405180910390fd5b80915050919050565b60008073ffffffffffffffffffffffffffffffffffffffff168273ffffffffffffffffffffffffffffffffffffffff1603610f6a576040517f08c379a0000000000000000000000000000000000000000000000000000000008152600401610f6190613f8e565b60405180910390fd5b600360008373ffffffffffffffffffffffffffffffffffffffff1673ffffffffffffffffffffffffffffffffffffffff168152602001908152602001600020549050919050565b60606000610fbe33610efa565b905060008167ffffffffffffffff811115610fdc57610fdb613538565b5b60405190808252806020026020018201604052801561101557816020015b611002612f86565b815260200190600190039081610ffa5790505b50905060005b8281101561110c57600061102f3383610801565b90506000600c600083815260200190815260200160002090508060405180608001604052908160008201548152602001600182015481526020016002820160009054906101000a900473ffffffffffffffffffffffffffffffffffffffff1673ffffffffffffffffffffffffffffffffffffffff1673ffffffffffffffffffffffffffffffffffffffff1681526020016002820160149054906101000a900460ff1615151515815250508484815181106110ec576110eb613d61565b5b60200260200101819052505050808061110490613e15565b91505061101b565b50809250505090565b61111d611df2565b6111276000611e70565b565b611131611df2565b60008111611174576040517f08c379a000000000000000000000000000000000000000000000000000000000815260040161116b90613ffa565b60405180910390fd5b8060088190555050565b6000600c600083815260200190815260200160002060010154905060006111a483610e74565b90508073ffffffffffffffffffffffffffffffffffffffff163373ffffffffffffffffffffffffffffffffffffffff1603611214576040517f08c379a000000000000000000000000000000000000000000000000000000000815260040161120b90614066565b60405180910390fd5b813414611256576040517f08c379a000000000000000000000000000000000000000000000000000000000815260040161124d906140d2565b60405180910390fd5b6000600c600085815260200190815260200160002060020160146101000a81548160ff02191690831515021790555061128f6009611f36565b61129a813385611aae565b8073ffffffffffffffffffffffffffffffffffffffff166108fc349081150290604051600060405180830381858888f193505050501580156112e0573d6000803e3d6000fd5b50505050565b6000600760009054906101000a900473ffffffffffffffffffffffffffffffffffffffff16905090565b60606001805461131f90613a10565b80601f016020809104026020016040519081016040528092919081815260200182805461134b90613a10565b80156113985780601f1061136d57610100808354040283529160200191611398565b820191906000526020600020905b81548152906001019060200180831161137b57829003601f168201915b5050505050905090565b6113b46113ad611942565b8383611f92565b5050565b6113c96113c3611942565b83611a19565b611408576040517f08c379a00000000000000000000000000000000000000000000000000000000081526004016113ff90613d41565b60405180910390fd5b611414848484846120fe565b50505050565b60085481565b606061142b826118f7565b600060066000848152602001908152602001600020805461144b90613a10565b80601f016020809104026020016040519081016040528092919081815260200182805461147790613a10565b80156114c45780601f10611499576101008083540402835291602001916114c4565b820191906000526020600020905b8154815290600101906020018083116114a757829003601f168201915b5050505050905060006114d561215a565b905060008151036114ea57819250505061152d565b60008251111561151f5780826040516020016115079291906140f2565b6040516020818303038152906040529250505061152d565b61152884612171565b925050505b919050565b600061153e6009611da7565b905090565b600061154d610a95565b821061158e576040517f08c379a0000000000000000000000000000000000000000000000000000000008152600401611585906139c1565b60405180910390fd5b600f82815481106115a2576115a1613d61565b5b90600052602060002001549050919050565b60006115bf83610e18565b156115ff576040517f08c379a00000000000000000000000000000000000000000000000000000000081526004016115f690614162565b60405180910390fd5b6008543414611643576040517f08c379a000000000000000000000000000000000000000000000000000000000815260040161163a90613caf565b60405180910390fd5b61164d600a611a03565b6116576009611a03565b6000611663600a611da7565b905061166f33826121d9565b61167981856121f7565b611683818461226b565b6001600b856040516116959190613e99565b908152602001604051809103902060006101000a81548160ff0219169083151502179055508091505092915050565b6000600560008473ffffffffffffffffffffffffffffffffffffffff1673ffffffffffffffffffffffffffffffffffffffff16815260200190815260200160002060008373ffffffffffffffffffffffffffffffffffffffff1673ffffffffffffffffffffffffffffffffffffffff16815260200190815260200160002060009054906101000a900460ff16905092915050565b611760612f86565b600c600083815260200190815260200160002060405180608001604052908160008201548152602001600182015481526020016002820160009054906101000a900473ffffffffffffffffffffffffffffffffffffffff1673ffffffffffffffffffffffffffffffffffffffff1673ffffffffffffffffffffffffffffffffffffffff1681526020016002820160149054906101000a900460ff1615151515815250509050919050565b611812611df2565b600073ffffffffffffffffffffffffffffffffffffffff168173ffffffffffffffffffffffffffffffffffffffff1603611881576040517f08c379a0000000000000000000000000000000000000000000000000000000008152600401611878906141f4565b60405180910390fd5b61188a81611e70565b50565b60007f01ffc9a7000000000000000000000000000000000000000000000000000000007bffffffffffffffffffffffffffffffffffffffffffffffffffffffff1916827bffffffffffffffffffffffffffffffffffffffffffffffffffffffff1916149050919050565b611900816123bb565b61193f576040517f08c379a000000000000000000000000000000000000000000000000000000000815260040161193690613efc565b60405180910390fd5b50565b600033905090565b816004600083815260200190815260200160002060006101000a81548173ffffffffffffffffffffffffffffffffffffffff021916908373ffffffffffffffffffffffffffffffffffffffff160217905550808273ffffffffffffffffffffffffffffffffffffffff166119bd83610e74565b73ffffffffffffffffffffffffffffffffffffffff167f8c5be1e5ebec7d5bd14f71427d1e84f3dd0314c0f7b2291e5b200ac8c7c3b92560405160405180910390a45050565b6001816000016000828254019250508190555050565b600080611a2583610e74565b90508073ffffffffffffffffffffffffffffffffffffffff168473ffffffffffffffffffffffffffffffffffffffff161480611a675750611a6681856116c4565b5b80611aa557508373ffffffffffffffffffffffffffffffffffffffff16611a8d84610938565b73ffffffffffffffffffffffffffffffffffffffff16145b91505092915050565b8273ffffffffffffffffffffffffffffffffffffffff16611ace82610e74565b73ffffffffffffffffffffffffffffffffffffffff1614611b24576040517f08c379a0000000000000000000000000000000000000000000000000000000008152600401611b1b90614286565b60405180910390fd5b600073ffffffffffffffffffffffffffffffffffffffff168273ffffffffffffffffffffffffffffffffffffffff1603611b93576040517f08c379a0000000000000000000000000000000000000000000000000000000008152600401611b8a90614318565b60405180910390fd5b611ba083838360016123fc565b8273ffffffffffffffffffffffffffffffffffffffff16611bc082610e74565b73ffffffffffffffffffffffffffffffffffffffff1614611c16576040517f08c379a0000000000000000000000000000000000000000000000000000000008152600401611c0d90614286565b60405180910390fd5b6004600082815260200190815260200160002060006101000a81549073ffffffffffffffffffffffffffffffffffffffff02191690556001600360008573ffffffffffffffffffffffffffffffffffffffff1673ffffffffffffffffffffffffffffffffffffffff168152602001908152602001600020600082825403925050819055506001600360008473ffffffffffffffffffffffffffffffffffffffff1673ffffffffffffffffffffffffffffffffffffffff16815260200190815260200160002060008282540192505081905550816002600083815260200190815260200160002060006101000a81548173ffffffffffffffffffffffffffffffffffffffff021916908373ffffffffffffffffffffffffffffffffffffffff160217905550808273ffffffffffffffffffffffffffffffffffffffff168473ffffffffffffffffffffffffffffffffffffffff167fddf252ad1be2c89b69c2b068fc378daa952ba7f163c4a11628f55a4df523b3ef60405160405180910390a4611da28383836001612511565b505050565b600081600001549050919050565b60006002600083815260200190815260200160002060009054906101000a900473ffffffffffffffffffffffffffffffffffffffff169050919050565b611dfa611942565b73ffffffffffffffffffffffffffffffffffffffff16611e186112e6565b73ffffffffffffffffffffffffffffffffffffffff1614611e6e576040517f08c379a0000000000000000000000000000000000000000000000000000000008152600401611e6590614384565b60405180910390fd5b565b6000600760009054906101000a900473ffffffffffffffffffffffffffffffffffffffff16905081600760006101000a81548173ffffffffffffffffffffffffffffffffffffffff021916908373ffffffffffffffffffffffffffffffffffffffff1602179055508173ffffffffffffffffffffffffffffffffffffffff168173ffffffffffffffffffffffffffffffffffffffff167f8be0079c531659141344cd1fd0a4f28419497f9722a3daafe3b4186f6b6457e060405160405180910390a35050565b60008160000154905060008111611f82576040517f08c379a0000000000000000000000000000000000000000000000000000000008152600401611f79906143f0565b60405180910390fd5b6001810382600001819055505050565b8173ffffffffffffffffffffffffffffffffffffffff168373ffffffffffffffffffffffffffffffffffffffff1603612000576040517f08c379a0000000000000000000000000000000000000000000000000000000008152600401611ff79061445c565b60405180910390fd5b80600560008573ffffffffffffffffffffffffffffffffffffffff1673ffffffffffffffffffffffffffffffffffffffff16815260200190815260200160002060008473ffffffffffffffffffffffffffffffffffffffff1673ffffffffffffffffffffffffffffffffffffffff16815260200190815260200160002060006101000a81548160ff0219169083151502179055508173ffffffffffffffffffffffffffffffffffffffff168373ffffffffffffffffffffffffffffffffffffffff167f17307eab39ab6107e8899845ad3d59bd9653f200f220920489ca2b5937696c31836040516120f1919061311d565b60405180910390a3505050565b612109848484611aae565b61211584848484612517565b612154576040517f08c379a000000000000000000000000000000000000000000000000000000000815260040161214b906144ee565b60405180910390fd5b50505050565b606060405180602001604052806000815250905090565b606061217c826118f7565b600061218661215a565b905060008151116121a657604051806020016040528060008152506121d1565b806121b08461269e565b6040516020016121c19291906140f2565b6040516020818303038152906040525b915050919050565b6121f382826040518060200160405280600081525061276c565b5050565b612200826123bb565b61223f576040517f08c379a000000000000000000000000000000000000000000000000000000000815260040161223690614580565b60405180910390fd5b80600660008481526020019081526020016000209080519060200190612266929190612fc6565b505050565b600081116122ae576040517f08c379a00000000000000000000000000000000000000000000000000000000081526004016122a590613ffa565b60405180910390fd5b60405180608001604052808381526020018281526020013373ffffffffffffffffffffffffffffffffffffffff16815260200160011515815250600c6000848152602001908152602001600020600082015181600001556020820151816001015560408201518160020160006101000a81548173ffffffffffffffffffffffffffffffffffffffff021916908373ffffffffffffffffffffffffffffffffffffffff16021790555060608201518160020160146101000a81548160ff0219169083151502179055509050507fca82ac8e7510ddab5e07b1ec225aaf3f1ebdd8642dabf974fbaf3a3631f4573482823360016040516123af94939291906145a0565b60405180910390a15050565b60008073ffffffffffffffffffffffffffffffffffffffff166123dd83611db5565b73ffffffffffffffffffffffffffffffffffffffff1614159050919050565b61240984848460016127c7565b600073ffffffffffffffffffffffffffffffffffffffff168473ffffffffffffffffffffffffffffffffffffffff160361244b57612446826128ed565b61248a565b8273ffffffffffffffffffffffffffffffffffffffff168473ffffffffffffffffffffffffffffffffffffffff1614612489576124888483612936565b5b5b600073ffffffffffffffffffffffffffffffffffffffff168373ffffffffffffffffffffffffffffffffffffffff16036124cc576124c782612aa3565b61250b565b8373ffffffffffffffffffffffffffffffffffffffff168373ffffffffffffffffffffffffffffffffffffffff161461250a576125098383612b74565b5b5b50505050565b50505050565b60006125388473ffffffffffffffffffffffffffffffffffffffff16612bf3565b15612691578373ffffffffffffffffffffffffffffffffffffffff1663150b7a02612561611942565b8786866040518563ffffffff1660e01b8152600401612583949392919061463a565b6020604051808303816000875af19250505080156125bf57506040513d601f19601f820116820180604052508101906125bc919061469b565b60015b612641573d80600081146125ef576040519150601f19603f3d011682016040523d82523d6000602084013e6125f4565b606091505b506000815103612639576040517f08c379a0000000000000000000000000000000000000000000000000000000008152600401612630906144ee565b60405180910390fd5b805181602001fd5b63150b7a0260e01b7bffffffffffffffffffffffffffffffffffffffffffffffffffffffff1916817bffffffffffffffffffffffffffffffffffffffffffffffffffffffff191614915050612696565b600190505b949350505050565b6060600060016126ad84612c16565b01905060008167ffffffffffffffff8111156126cc576126cb613538565b5b6040519080825280601f01601f1916602001820160405280156126fe5781602001600182028036833780820191505090505b509050600082602001820190505b600115612761578080600190039150507f3031323334353637383961626364656600000000000000000000000000000000600a86061a8153600a8581612755576127546146c8565b5b0494506000850361270c575b819350505050919050565b6127768383612d69565b6127836000848484612517565b6127c2576040517f08c379a00000000000000000000000000000000000000000000000000000000081526004016127b9906144ee565b60405180910390fd5b505050565b60018111156128e757600073ffffffffffffffffffffffffffffffffffffffff168473ffffffffffffffffffffffffffffffffffffffff161461285b5780600360008673ffffffffffffffffffffffffffffffffffffffff1673ffffffffffffffffffffffffffffffffffffffff168152602001908152602001600020600082825461285391906146f7565b925050819055505b600073ffffffffffffffffffffffffffffffffffffffff168373ffffffffffffffffffffffffffffffffffffffff16146128e65780600360008573ffffffffffffffffffffffffffffffffffffffff1673ffffffffffffffffffffffffffffffffffffffff16815260200190815260200160002060008282546128de9190613dbf565b925050819055505b5b50505050565b600f805490506010600083815260200190815260200160002081905550600f81908060018154018082558091505060019003906000526020600020016000909190919091505550565b6000600161294384610efa565b61294d91906146f7565b90506000600e6000848152602001908152602001600020549050818114612a32576000600d60008673ffffffffffffffffffffffffffffffffffffffff1673ffffffffffffffffffffffffffffffffffffffff168152602001908152602001600020600084815260200190815260200160002054905080600d60008773ffffffffffffffffffffffffffffffffffffffff1673ffffffffffffffffffffffffffffffffffffffff16815260200190815260200160002060008481526020019081526020016000208190555081600e600083815260200190815260200160002081905550505b600e600084815260200190815260200160002060009055600d60008573ffffffffffffffffffffffffffffffffffffffff1673ffffffffffffffffffffffffffffffffffffffff16815260200190815260200160002060008381526020019081526020016000206000905550505050565b60006001600f80549050612ab791906146f7565b90506000601060008481526020019081526020016000205490506000600f8381548110612ae757612ae6613d61565b5b9060005260206000200154905080600f8381548110612b0957612b08613d61565b5b90600052602060002001819055508160106000838152602001908152602001600020819055506010600085815260200190815260200160002060009055600f805480612b5857612b5761472b565b5b6001900381819060005260206000200160009055905550505050565b6000612b7f83610efa565b905081600d60008573ffffffffffffffffffffffffffffffffffffffff1673ffffffffffffffffffffffffffffffffffffffff16815260200190815260200160002060008381526020019081526020016000208190555080600e600084815260200190815260200160002081905550505050565b6000808273ffffffffffffffffffffffffffffffffffffffff163b119050919050565b600080600090507a184f03e93ff9f4daa797ed6e38ed64bf6a1f0100000000000000008310612c74577a184f03e93ff9f4daa797ed6e38ed64bf6a1f0100000000000000008381612c6a57612c696146c8565b5b0492506040810190505b6d04ee2d6d415b85acef81000000008310612cb1576d04ee2d6d415b85acef81000000008381612ca757612ca66146c8565b5b0492506020810190505b662386f26fc100008310612ce057662386f26fc100008381612cd657612cd56146c8565b5b0492506010810190505b6305f5e1008310612d09576305f5e1008381612cff57612cfe6146c8565b5b0492506008810190505b6127108310612d2e576127108381612d2457612d236146c8565b5b0492506004810190505b60648310612d515760648381612d4757612d466146c8565b5b0492506002810190505b600a8310612d60576001810190505b80915050919050565b600073ffffffffffffffffffffffffffffffffffffffff168273ffffffffffffffffffffffffffffffffffffffff1603612dd8576040517f08c379a0000000000000000000000000000000000000000000000000000000008152600401612dcf906147a6565b60405180910390fd5b612de1816123bb565b15612e21576040517f08c379a0000000000000000000000000000000000000000000000000000000008152600401612e1890614812565b60405180910390fd5b612e2f6000838360016123fc565b612e38816123bb565b15612e78576040517f08c379a0000000000000000000000000000000000000000000000000000000008152600401612e6f90614812565b60405180910390fd5b6001600360008473ffffffffffffffffffffffffffffffffffffffff1673ffffffffffffffffffffffffffffffffffffffff16815260200190815260200160002060008282540192505081905550816002600083815260200190815260200160002060006101000a81548173ffffffffffffffffffffffffffffffffffffffff021916908373ffffffffffffffffffffffffffffffffffffffff160217905550808273ffffffffffffffffffffffffffffffffffffffff16600073ffffffffffffffffffffffffffffffffffffffff167fddf252ad1be2c89b69c2b068fc378daa952ba7f163c4a11628f55a4df523b3ef60405160405180910390a4612f82600083836001612511565b5050565b60405180608001604052806000815260200160008152602001600073ffffffffffffffffffffffffffffffffffffffff1681526020016000151581525090565b828054612fd290613a10565b90600052602060002090601f016020900481019282612ff4576000855561303b565b82601f1061300d57805160ff191683800117855561303b565b8280016001018555821561303b579182015b8281111561303a57825182559160200191906001019061301f565b5b509050613048919061304c565b5090565b5b8082111561306557600081600090555060010161304d565b5090565b6000604051905090565b600080fd5b600080fd5b60007fffffffff0000000000000000000000000000000000000000000000000000000082169050919050565b6130b28161307d565b81146130bd57600080fd5b50565b6000813590506130cf816130a9565b92915050565b6000602082840312156130eb576130ea613073565b5b60006130f9848285016130c0565b91505092915050565b60008115159050919050565b61311781613102565b82525050565b6000602082019050613132600083018461310e565b92915050565b600073ffffffffffffffffffffffffffffffffffffffff82169050919050565b600061316382613138565b9050919050565b61317381613158565b811461317e57600080fd5b50565b6000813590506131908161316a565b92915050565b6000819050919050565b6131a981613196565b81146131b457600080fd5b50565b6000813590506131c6816131a0565b92915050565b600080604083850312156131e3576131e2613073565b5b60006131f185828601613181565b9250506020613202858286016131b7565b9150509250929050565b61321581613196565b82525050565b6000602082019050613230600083018461320c565b92915050565b600081519050919050565b600082825260208201905092915050565b60005b83811015613270578082015181840152602081019050613255565b8381111561327f576000848401525b50505050565b6000601f19601f8301169050919050565b60006132a182613236565b6132ab8185613241565b93506132bb818560208601613252565b6132c481613285565b840191505092915050565b600060208201905081810360008301526132e98184613296565b905092915050565b60006020828403121561330757613306613073565b5b6000613315848285016131b7565b91505092915050565b61332781613158565b82525050565b6000602082019050613342600083018461331e565b92915050565b6000806040838503121561335f5761335e613073565b5b600061336d858286016131b7565b925050602061337e858286016131b7565b9150509250929050565b6000806000606084860312156133a1576133a0613073565b5b60006133af86828701613181565b93505060206133c086828701613181565b92505060406133d1868287016131b7565b9150509250925092565b600081519050919050565b600082825260208201905092915050565b6000819050602082019050919050565b61341081613196565b82525050565b61341f81613158565b82525050565b61342e81613102565b82525050565b60808201600082015161344a6000850182613407565b50602082015161345d6020850182613407565b5060408201516134706040850182613416565b5060608201516134836060850182613425565b50505050565b60006134958383613434565b60808301905092915050565b6000602082019050919050565b60006134b9826133db565b6134c381856133e6565b93506134ce836133f7565b8060005b838110156134ff5781516134e68882613489565b97506134f1836134a1565b9250506001810190506134d2565b5085935050505092915050565b6000602082019050818103600083015261352681846134ae565b905092915050565b600080fd5b600080fd5b7f4e487b7100000000000000000000000000000000000000000000000000000000600052604160045260246000fd5b61357082613285565b810181811067ffffffffffffffff8211171561358f5761358e613538565b5b80604052505050565b60006135a2613069565b90506135ae8282613567565b919050565b600067ffffffffffffffff8211156135ce576135cd613538565b5b6135d782613285565b9050602081019050919050565b82818337600083830152505050565b6000613606613601846135b3565b613598565b90508281526020810184848401111561362257613621613533565b5b61362d8482856135e4565b509392505050565b600082601f83011261364a5761364961352e565b5b813561365a8482602086016135f3565b91505092915050565b60006020828403121561367957613678613073565b5b600082013567ffffffffffffffff81111561369757613696613078565b5b6136a384828501613635565b91505092915050565b6000602082840312156136c2576136c1613073565b5b60006136d084828501613181565b91505092915050565b6136e281613102565b81146136ed57600080fd5b50565b6000813590506136ff816136d9565b92915050565b6000806040838503121561371c5761371b613073565b5b600061372a85828601613181565b925050602061373b858286016136f0565b9150509250929050565b600067ffffffffffffffff8211156137605761375f613538565b5b61376982613285565b9050602081019050919050565b600061378961378484613745565b613598565b9050828152602081018484840111156137a5576137a4613533565b5b6137b08482856135e4565b509392505050565b600082601f8301126137cd576137cc61352e565b5b81356137dd848260208601613776565b91505092915050565b60008060008060808587031215613800576137ff613073565b5b600061380e87828801613181565b945050602061381f87828801613181565b9350506040613830878288016131b7565b925050606085013567ffffffffffffffff81111561385157613850613078565b5b61385d878288016137b8565b91505092959194509250565b600080604083850312156138805761387f613073565b5b600083013567ffffffffffffffff81111561389e5761389d613078565b5b6138aa85828601613635565b92505060206138bb858286016131b7565b9150509250929050565b600080604083850312156138dc576138db613073565b5b60006138ea85828601613181565b92505060206138fb85828601613181565b9150509250929050565b60808201600082015161391b6000850182613407565b50602082015161392e6020850182613407565b5060408201516139416040850182613416565b5060608201516139546060850182613425565b50505050565b600060808201905061396f6000830184613905565b92915050565b7f496e646578206f7574206f6620626f756e647300000000000000000000000000600082015250565b60006139ab601383613241565b91506139b682613975565b602082019050919050565b600060208201905081810360008301526139da8161399e565b9050919050565b7f4e487b7100000000000000000000000000000000000000000000000000000000600052602260045260246000fd5b60006002820490506001821680613a2857607f821691505b602082108103613a3b57613a3a6139e1565b5b50919050565b7f4552433732313a20617070726f76616c20746f2063757272656e74206f776e6560008201527f7200000000000000000000000000000000000000000000000000000000000000602082015250565b6000613a9d602183613241565b9150613aa882613a41565b604082019050919050565b60006020820190508181036000830152613acc81613a90565b9050919050565b7f4552433732313a20617070726f76652063616c6c6572206973206e6f7420746f60008201527f6b656e206f776e6572206f7220617070726f76656420666f7220616c6c000000602082015250565b6000613b2f603d83613241565b9150613b3a82613ad3565b604082019050919050565b60006020820190508181036000830152613b5e81613b22565b9050919050565b7f596f7520617265206e6f74206f776e6572206f662074686973206e6674000000600082015250565b6000613b9b601d83613241565b9150613ba682613b65565b602082019050919050565b60006020820190508181036000830152613bca81613b8e565b9050919050565b7f4974656d20697320616c7265616479206f6e2073616c65000000000000000000600082015250565b6000613c07601783613241565b9150613c1282613bd1565b602082019050919050565b60006020820190508181036000830152613c3681613bfa565b9050919050565b7f5072696365206d75737420626520657175616c20746f206c697374696e67207060008201527f7269636500000000000000000000000000000000000000000000000000000000602082015250565b6000613c99602483613241565b9150613ca482613c3d565b604082019050919050565b60006020820190508181036000830152613cc881613c8c565b9050919050565b7f4552433732313a2063616c6c6572206973206e6f7420746f6b656e206f776e6560008201527f72206f7220617070726f76656400000000000000000000000000000000000000602082015250565b6000613d2b602d83613241565b9150613d3682613ccf565b604082019050919050565b60006020820190508181036000830152613d5a81613d1e565b9050919050565b7f4e487b7100000000000000000000000000000000000000000000000000000000600052603260045260246000fd5b7f4e487b7100000000000000000000000000000000000000000000000000000000600052601160045260246000fd5b6000613dca82613196565b9150613dd583613196565b9250827fffffffffffffffffffffffffffffffffffffffffffffffffffffffffffffffff03821115613e0a57613e09613d90565b5b828201905092915050565b6000613e2082613196565b91507fffffffffffffffffffffffffffffffffffffffffffffffffffffffffffffffff8203613e5257613e51613d90565b5b600182019050919050565b600081905092915050565b6000613e7382613236565b613e7d8185613e5d565b9350613e8d818560208601613252565b80840191505092915050565b6000613ea58284613e68565b915081905092915050565b7f4552433732313a20696e76616c696420746f6b656e2049440000000000000000600082015250565b6000613ee6601883613241565b9150613ef182613eb0565b602082019050919050565b60006020820190508181036000830152613f1581613ed9565b9050919050565b7f4552433732313a2061646472657373207a65726f206973206e6f74206120766160008201527f6c6964206f776e65720000000000000000000000000000000000000000000000602082015250565b6000613f78602983613241565b9150613f8382613f1c565b604082019050919050565b60006020820190508181036000830152613fa781613f6b565b9050919050565b7f5072696365206d757374206265206174206c6561737420312077656900000000600082015250565b6000613fe4601c83613241565b9150613fef82613fae565b602082019050919050565b6000602082019050818103600083015261401381613fd7565b9050919050565b7f596f7520616c7265616479206f776e2074686973204e46540000000000000000600082015250565b6000614050601883613241565b915061405b8261401a565b602082019050919050565b6000602082019050818103600083015261407f81614043565b9050919050565b7f506c65617365207375626d6974207468652061736b696e672070726963650000600082015250565b60006140bc601e83613241565b91506140c782614086565b602082019050919050565b600060208201905081810360008301526140eb816140af565b9050919050565b60006140fe8285613e68565b915061410a8284613e68565b91508190509392505050565b7f525741737365742055524920616c726561647920657869737473000000000000600082015250565b600061414c601a83613241565b915061415782614116565b602082019050919050565b6000602082019050818103600083015261417b8161413f565b9050919050565b7f4f776e61626c653a206e6577206f776e657220697320746865207a65726f206160008201527f6464726573730000000000000000000000000000000000000000000000000000602082015250565b60006141de602683613241565b91506141e982614182565b604082019050919050565b6000602082019050818103600083015261420d816141d1565b9050919050565b7f4552433732313a207472616e736665722066726f6d20696e636f72726563742060008201527f6f776e6572000000000000000000000000000000000000000000000000000000602082015250565b6000614270602583613241565b915061427b82614214565b604082019050919050565b6000602082019050818103600083015261429f81614263565b9050919050565b7f4552433732313a207472616e7366657220746f20746865207a65726f2061646460008201527f7265737300000000000000000000000000000000000000000000000000000000602082015250565b6000614302602483613241565b915061430d826142a6565b604082019050919050565b60006020820190508181036000830152614331816142f5565b9050919050565b7f4f776e61626c653a2063616c6c6572206973206e6f7420746865206f776e6572600082015250565b600061436e602083613241565b915061437982614338565b602082019050919050565b6000602082019050818103600083015261439d81614361565b9050919050565b7f436f756e7465723a2064656372656d656e74206f766572666c6f770000000000600082015250565b60006143da601b83613241565b91506143e5826143a4565b602082019050919050565b60006020820190508181036000830152614409816143cd565b9050919050565b7f4552433732313a20617070726f766520746f2063616c6c657200000000000000600082015250565b6000614446601983613241565b915061445182614410565b602082019050919050565b6000602082019050818103600083015261447581614439565b9050919050565b7f4552433732313a207472616e7366657220746f206e6f6e20455243373231526560008201527f63656976657220696d706c656d656e7465720000000000000000000000000000602082015250565b60006144d8603283613241565b91506144e38261447c565b604082019050919050565b60006020820190508181036000830152614507816144cb565b9050919050565b7f45524337323155524953746f726167653a2055524920736574206f66206e6f6e60008201527f6578697374656e7420746f6b656e000000000000000000000000000000000000602082015250565b600061456a602e83613241565b91506145758261450e565b604082019050919050565b600060208201905081810360008301526145998161455d565b9050919050565b60006080820190506145b5600083018761320c565b6145c2602083018661320c565b6145cf604083018561331e565b6145dc606083018461310e565b95945050505050565b600081519050919050565b600082825260208201905092915050565b600061460c826145e5565b61461681856145f0565b9350614626818560208601613252565b61462f81613285565b840191505092915050565b600060808201905061464f600083018761331e565b61465c602083018661331e565b614669604083018561320c565b818103606083015261467b8184614601565b905095945050505050565b600081519050614695816130a9565b92915050565b6000602082840312156146b1576146b0613073565b5b60006146bf84828501614686565b91505092915050565b7f4e487b7100000000000000000000000000000000000000000000000000000000600052601260045260246000fd5b600061470282613196565b915061470d83613196565b9250828210156147205761471f613d90565b5b828203905092915050565b7f4e487b7100000000000000000000000000000000000000000000000000000000600052603160045260246000fd5b7f4552433732313a206d696e7420746f20746865207a65726f2061646472657373600082015250565b6000614790602083613241565b915061479b8261475a565b602082019050919050565b600060208201905081810360008301526147bf81614783565b9050919050565b7f4552433732313a20746f6b656e20616c7265616479206d696e74656400000000600082015250565b60006147fc601c83613241565b9150614807826147c6565b602082019050919050565b6000602082019050818103600083015261482b816147ef565b905091905056fea26469706673582212209deb7a90c28247d3512a5f1036426e371254f3c277cc264888eff43f3ef5542564736f6c634300080d0033",
  "immutableReferences": {},
  "source": "// SPDX-License-Identifier: UNLICENSED\npragma solidity ^0.8.9;\n\nimport \"../node_modules/@openzeppelin/contracts/token/ERC721/extensions/ERC721URIStorage.sol\";\nimport \"../node_modules/@openzeppelin/contracts/utils/Counters.sol\";\nimport \"../node_modules/@openzeppelin/contracts/access/Ownable.sol\";\n\ncontract BonsaiCertification {\n  address public owner;\n  uint public bonsaiIndex = 0;\n  uint[] public allCertificatedBonsais;\n\n  mapping(uint => address) public bonsaiIdxToOwnerAddress;\n  mapping(address => uint[]) public ownerAddressToBonsaiList;\n\n  constructor(uint initialBonsaiIndex) {\n    owner = msg.sender;\n    bonsaiIndex = initialBonsaiIndex;\n  }\n\n  function addBonsai() public {\n    require(msg.sender == owner, \"Only a contract owner can add a new bonsai!\");\n    bonsaiIndex++;\n  }\n\n  function adoptBonsai(uint adoptIdx) public {\n    require(adoptIdx < bonsaiIndex, \"Bonsai index out of bounds!\");\n    require(bonsaiIdxToOwnerAddress[adoptIdx] == address(0), \"Bonsai is already certificated\");\n\n    bonsaiIdxToOwnerAddress[adoptIdx] = msg.sender;\n    ownerAddressToBonsaiList[msg.sender].push(adoptIdx);\n    allCertificatedBonsais.push(adoptIdx);\n  }\n\n  function getOwner() public view returns(address) {\n    return owner;\n  }\n\n  function getAllCertificatedBonsaisByOnwer() public view returns(uint[] memory) {\n    return ownerAddressToBonsaiList[msg.sender];\n  }\n\n  function getAllCertificatedBonsais() public view returns(uint[] memory) {\n    return allCertificatedBonsais;\n  }\n  \n}\n\ncontract BonsaiToken {\n    string public name;\n    string public symbol;\n    uint256 public totalSupply;\n\n    mapping(address => uint256) public balanceOf;\n    mapping(address => mapping(address => uint256)) public allowance;\n    mapping(address => uint256) public depositOf;\n\n    event Transfer(address _from, address _to, uint256 _value);\n    event Approve(address, address, uint256);\n\n    constructor(string memory _name, string memory _symbol, uint256 _initialSupply) {\n        name = _name;\n        symbol = _symbol;\n        balanceOf[msg.sender] = _initialSupply;\n        totalSupply += _initialSupply;\n    }\n\n    function deposit() public payable {\n        depositOf[msg.sender] = msg.value;\n        // 0.1 eth 1000 token\n        uint256 totalTokenRecieve = (msg.value * 1000) / (0.1 * 10**18);\n        balanceOf[msg.sender] = totalTokenRecieve;\n        totalSupply += totalTokenRecieve;\n    }\n\n    function transfer(address _to, uint256 _value) public returns (bool success) {\n        _transfer(msg.sender, _to, _value);\n        return true;\n    }\n\n    function _transfer(address _from, address _to, uint256 _value) internal {\n        require(balanceOf[_from] >= _value, \"Insufficient balance\");\n        require(_to != address(0), \"address 0 recipient\");\n        balanceOf[_from] -= _value;\n        balanceOf[_to] += _value;\n    }\n\n    function approve(address _spender, uint256 _value) public returns (bool success) {\n        allowance[msg.sender][_spender] = _value;\n        emit Approve(msg.sender, _spender, _value);\n        return true;\n    }\n\n    function transferFrom(address _from, address _to, uint256 _value) public returns (bool success) {\n        require(allowance[_from][msg.sender] >= _value, \"Insufficient allowance\");\n        allowance[_from][msg.sender] -= _value;\n        _transfer(_from, _to, _value);\n        return true;\n    }\n}\n\ncontract SaigonWallet is ERC721URIStorage, Ownable {\n  using Counters for Counters.Counter;\n\n  struct BonsaiRwa {\n    uint bonsaiId;\n    uint price;\n    address creator;\n    bool isListed;\n  }\n\n  uint public listingPrice = 0.0016 ether;\n\n  Counters.Counter private _listedItems;\n  Counters.Counter private _bonsaiIds;\n\n  mapping(string => bool) private _usedTokenURIs;\n  mapping(uint => BonsaiRwa) private _idToBonsaiRwa;\n\n  mapping(address => mapping(uint => uint)) private _ownedTokens;\n  mapping(uint => uint) private _idToOwnedIndex;\n\n  uint256[] private _allNfts;\n  mapping(uint => uint) private _idToNftIndex;\n\n  event BonsaiRwaCreated (\n    uint bonsaiId,\n    uint price,\n    address creator,\n    bool isListed\n  );\n\n  constructor() ERC721(\"SaigonWallet\", \"SGW\") {}\n\n  function setListingPrice(uint newPrice) external onlyOwner {\n    require(newPrice > 0, \"Price must be at least 1 wei\");\n    listingPrice = newPrice;\n  }\n\n\n  function getBonsaiRwa(uint bonsaiId) public view returns (BonsaiRwa memory) {\n    return _idToBonsaiRwa[bonsaiId];\n  }\n\n  function listedItemsCount() public view returns (uint) {\n    return _listedItems.current();\n  }\n\n  function rWAssetURIExists(string memory tokenURI) public view returns (bool) {\n    return _usedTokenURIs[tokenURI] == true;\n  }\n\n  function totalSupply() public view returns (uint) {\n    return _allNfts.length;\n  }\n\n  function rWAssetByIndex(uint index) public view returns (uint) {\n    require(index < totalSupply(), \"Index out of bounds\");\n    return _allNfts[index];\n  }\n\n  function rWAssetOfOwnerByIndex(address owner, uint index) public view returns (uint) {\n    require(index < ERC721.balanceOf(owner), \"Index out of bounds\");\n    return _ownedTokens[owner][index];\n  }\n\n  function getAllNftsOnSale() public view returns (BonsaiRwa[] memory) {\n    uint allItemsCounts = totalSupply();\n    uint currentIndex = 0;\n    BonsaiRwa[] memory items = new BonsaiRwa[](_listedItems.current());\n\n    for (uint i = 0; i < allItemsCounts; i++) {\n      uint bonsaiId = rWAssetByIndex(i);\n      BonsaiRwa storage item = _idToBonsaiRwa[bonsaiId];\n\n      if (item.isListed == true) {\n        items[currentIndex] = item;\n        currentIndex += 1;\n      }\n    }\n\n    return items;\n  }\n\n  function getOwnedNfts() public view returns (BonsaiRwa[] memory) {\n    uint ownedItemsCount = ERC721.balanceOf(msg.sender);\n    BonsaiRwa[] memory items = new BonsaiRwa[](ownedItemsCount);\n\n    for (uint i = 0; i < ownedItemsCount; i++) {\n      uint bonsaiId = rWAssetOfOwnerByIndex(msg.sender, i);\n      BonsaiRwa storage item = _idToBonsaiRwa[bonsaiId];\n      items[i] = item;\n    }\n\n    return items;\n  }\n\n  function mintRWAsset(string memory tokenURI, uint price) public payable returns (uint) {\n    require(!rWAssetURIExists(tokenURI), \"RWAsset URI already exists\");\n    require(msg.value == listingPrice, \"Price must be equal to listing price\");\n\n    _bonsaiIds.increment();\n    _listedItems.increment();\n\n    uint newBonsaiId = _bonsaiIds.current();\n\n    _safeMint(msg.sender, newBonsaiId);\n    _setTokenURI(newBonsaiId, tokenURI);\n    _createBonsaiRwa(newBonsaiId, price);\n    _usedTokenURIs[tokenURI] = true;\n\n    return newBonsaiId;\n  }\n\n  function buyRwa(\n    uint bonsaiId\n  ) public payable {\n    uint price = _idToBonsaiRwa[bonsaiId].price;\n    address owner = ERC721.ownerOf(bonsaiId);\n\n    require(msg.sender != owner, \"You already own this NFT\");\n    require(msg.value == price, \"Please submit the asking price\");\n\n    _idToBonsaiRwa[bonsaiId].isListed = false;\n    _listedItems.decrement();\n\n    _transfer(owner, msg.sender, bonsaiId);\n    payable(owner).transfer(msg.value);\n  }\n\n  function placeNftOnSale(uint bonsaiId, uint newPrice) public payable {\n    require(ERC721.ownerOf(bonsaiId) == msg.sender, \"You are not owner of this nft\");\n    require(_idToBonsaiRwa[bonsaiId].isListed == false, \"Item is already on sale\");\n    require(msg.value == listingPrice, \"Price must be equal to listing price\");\n\n    _idToBonsaiRwa[bonsaiId].isListed = true;\n    _idToBonsaiRwa[bonsaiId].price = newPrice;\n    _listedItems.increment();\n  }\n\n  function _createBonsaiRwa(\n    uint bonsaiId,\n    uint price\n  ) private {\n    require(price > 0, \"Price must be at least 1 wei\");\n\n    _idToBonsaiRwa[bonsaiId] = BonsaiRwa(\n      bonsaiId,\n      price,\n      msg.sender,\n      true\n    );\n\n    emit BonsaiRwaCreated(bonsaiId, price, msg.sender, true);\n  }\n\n  function _beforeTokenTransfer(\n    address from,\n    address to,\n    uint bonsaiId,\n    uint256 \n  ) internal virtual override {\n    super._beforeTokenTransfer(from, to, bonsaiId, 1);\n\n    // minting token\n    if (from == address(0)) {\n      _addTokenToAllTokensDetailed(bonsaiId);\n    } else if (from != to) {\n      _removeTokenFromOwnerDetailed(from, bonsaiId);\n    }\n\n    if (to == address(0)) {\n      _removeTokenFromAllTokensDetailed(bonsaiId);\n    } else if (to != from) {\n      _addTokenToOwnerDetailed(to, bonsaiId);\n    }\n\n  }\n\n  function _addTokenToAllTokensDetailed(uint bonsaiId) private {\n    _idToNftIndex[bonsaiId] = _allNfts.length;\n    _allNfts.push(bonsaiId);\n  }\n\n  function _addTokenToOwnerDetailed(address to, uint bonsaiId) private {\n    uint length = ERC721.balanceOf(to);\n    _ownedTokens[to][length] = bonsaiId;\n    _idToOwnedIndex[bonsaiId] = length;\n  }\n\n  function _removeTokenFromOwnerDetailed(address from, uint bonsaiId) private {\n    uint lastTokenIndex = ERC721.balanceOf(from) - 1;\n    uint tokenIndex = _idToOwnedIndex[bonsaiId];\n\n    if (tokenIndex != lastTokenIndex) {\n      uint lastBonsaiId = _ownedTokens[from][lastTokenIndex];\n\n      _ownedTokens[from][tokenIndex] = lastBonsaiId;\n      _idToOwnedIndex[lastBonsaiId] = tokenIndex;\n    }\n\n    delete _idToOwnedIndex[bonsaiId];\n    delete _ownedTokens[from][lastTokenIndex];\n  }\n  function _removeTokenFromAllTokensDetailed(uint bonsaiId) private {\n    uint lastTokenIndex = _allNfts.length - 1;\n    uint tokenIndex = _idToNftIndex[bonsaiId];\n    uint lastBonsaiId = _allNfts[lastTokenIndex];\n\n    _allNfts[tokenIndex] = lastBonsaiId;\n    _idToNftIndex[lastBonsaiId] = tokenIndex;\n\n    delete _idToNftIndex[bonsaiId];\n    _allNfts.pop();\n  }\n}",
  "sourcePath": "D:\\Klaytn-Saigonwallet\\hackathon\\contracts\\SaigonWallet.sol",
  "compiler": {
    "name": "solc",
    "version": "0.8.13+commit.abaa5c0e.Emscripten.clang"
  },
  "schemaVersion": "3.4.16",
  "updatedAt": "2023-09-11T04:31:58.593Z",
  "networkType": "ethereum",
  "devdoc": {
    "kind": "dev",
    "methods": {
      "approve(address,uint256)": {
        "details": "See {IERC721-approve}."
      },
      "balanceOf(address)": {
        "details": "See {IERC721-balanceOf}."
      },
      "getApproved(uint256)": {
        "details": "See {IERC721-getApproved}."
      },
      "isApprovedForAll(address,address)": {
        "details": "See {IERC721-isApprovedForAll}."
      },
      "name()": {
        "details": "See {IERC721Metadata-name}."
      },
      "owner()": {
        "details": "Returns the address of the current owner."
      },
      "ownerOf(uint256)": {
        "details": "See {IERC721-ownerOf}."
      },
      "renounceOwnership()": {
        "details": "Leaves the contract without owner. It will not be possible to call `onlyOwner` functions anymore. Can only be called by the current owner. NOTE: Renouncing ownership will leave the contract without an owner, thereby removing any functionality that is only available to the owner."
      },
      "safeTransferFrom(address,address,uint256)": {
        "details": "See {IERC721-safeTransferFrom}."
      },
      "safeTransferFrom(address,address,uint256,bytes)": {
        "details": "See {IERC721-safeTransferFrom}."
      },
      "setApprovalForAll(address,bool)": {
        "details": "See {IERC721-setApprovalForAll}."
      },
      "supportsInterface(bytes4)": {
        "details": "See {IERC165-supportsInterface}."
      },
      "symbol()": {
        "details": "See {IERC721Metadata-symbol}."
      },
      "tokenURI(uint256)": {
        "details": "See {IERC721Metadata-tokenURI}."
      },
      "transferFrom(address,address,uint256)": {
        "details": "See {IERC721-transferFrom}."
      },
      "transferOwnership(address)": {
        "details": "Transfers ownership of the contract to a new account (`newOwner`). Can only be called by the current owner."
      }
    },
    "version": 1
  },
  "userdoc": {
    "kind": "user",
    "methods": {},
    "version": 1
  }
}